:020000040000FA
:1000000098020020C9020000D1020000D3020000C3
:10001000D5020000D7020000D90200000000000055
:10002000000000000000000000000000DB020000F3
:10003000DD02000000000000DF020000D90C00001B
:10004000E3020000E5020000E7020000E902000010
:10005000EB020000ED020000EF020000F1020000E0
:10006000F3020000F5020000F7020000F9020000B0
:10007000FB020000FD020000FF020000010300007F
:10008000030300000503000007030000090300004C
:100090000B0300000D0300000F030000110300001C
:1000A00013030000150300001703000019030000EC
:1000B0001B0300001D0300001F03000021030000BC
:1000C000230300002503000027030000290300008C
:1000D0002B0300002D0300002F030000310300005C
:1000E000330300003503000037030000390300002C
:1000F0003B0300003D0300003F03000041030000FC
:1001000043030000450300004703000049030000CB
:100110004B0300004D0300004F030000510300009B
:10012000530300005503000057030000590300006B
:100130005B0300005D0300005F030000610300003B
:1001400063030000650300006703000081030000F3
:100150000000000000000000830300008503000091
:100160008703000089030000000000008B030000EB
:100170008D0300008F030000910300009303000033
:100180009503000097030000990300009B03000003
:100190009D0300009F030000A1030000A3030000D3
:1001A000A5030000A7030000A9030000AB030000A3
:1001B000AD030000AF030000B1030000B303000073
:1001C000B5030000B7030000B9030000BB03000043
:1001D000BD030000BF030000C1030000C303000013
:1001E000C5030000C7030000C9030000CB030000E3
:1001F000CD030000CF030000D1030000D3030000B3
:1002000000F002F800F03CF80AA090E8000C8244EC
:100210008344AAF10107DA4501D100F031F8AFF2C9
:10022000090EBAE80F0013F0010F18BFFB1A43F0D4
:10023000010318471811000038110000103A24BFBC
:1002400078C878C1FAD8520724BF30C830C144BF3B
:1002500004680C607047000000230024002500267D
:10026000103A28BF78C1FBD8520728BF30C148BF19
:100270000B6070471FB500F025FE1FBD10B510BD07
:1002800000F0EDF81146FFF7F5FF00F0B5FD00F0C6
:100290000BF903B4FFF7F2FF03BC00F013F9000001
:1002A000EFF3108072B67047EFF310807047EFF3F2
:1002B000108062B6704730BF704780F31188704776
:1002C000EFF31180704700004548804745480047DC
:1002D000FEE7FEE7FEE7FEE7FEE7FEE7FEE7FEE7F6
:1002E000FEE7FEE7FEE7FEE7FEE7FEE7FEE7FEE7E6
:1002F000FEE7FEE7FEE7FEE7FEE7FEE7FEE7FEE7D6
:10030000FEE7FEE7FEE7FEE7FEE7FEE7FEE7FEE7C5
:10031000FEE7FEE7FEE7FEE7FEE7FEE7FEE7FEE7B5
:10032000FEE7FEE7FEE7FEE7FEE7FEE7FEE7FEE7A5
:10033000FEE7FEE7FEE7FEE7FEE7FEE7FEE7FEE795
:10034000FEE7FEE7FEE7FEE7FEE7FEE7FEE7FEE785
:10035000FEE7FEE7FEE7FEE7FEE7FEE7FEE7FEE775
:10036000FEE7FEE7FEE7FEE7FEE7FEE7FEE7FEE765
:10037000FEE7FEE7FEE7FEE7FEE7FEE7FEE7FEE755
:10038000FEE7FEE7FEE7FEE7FEE7FEE7FEE7FEE745
:10039000FEE7FEE7FEE7FEE7FEE7FEE7FEE7FEE735
:1003A000FEE7FEE7FEE7FEE7FEE7FEE7FEE7FEE725
:1003B000FEE7FEE7FEE7FEE7FEE7FEE7FEE7FEE715
:1003C000FEE7FEE7FEE7FEE7FEE7FEE7FEE7FEE705
:1003D000FEE7FEE704480549034A054B7047000065
:1003E000D90D0000010200009800002098020020B2
:1003F0009800002010B5203AC0F00B80B1E81850EA
:10040000203AA0E81850B1E81850A0E81850BFF4FE
:10041000F5AF5FEA027C24BFB1E81850A0E818509D
:1004200044BF18C918C0BDE810405FEA827C24BFF1
:1004300051F8043B40F8043B08BF7047D20728BF7F
:1004400031F8023B48BF11F8012B28BF20F8023BCE
:1004500048BF00F8012B70477047704770477546DA
:1004600000F02CF8AE4605006946534620F0070020
:10047000854618B020B5FFF7ADFFBDE820404FF02E
:1004800000064FF000074FF000084FF0000B21F07E
:100490000701AC46ACE8C009ACE8C009ACE8C0094B
:1004A000ACE8C0098D46704710B50446AFF3008034
:1004B0002046BDE81040FFF7ECBE00000048704742
:1004C0003400002001491820ABBEFEE726000200E0
:1004D000704710B500F0D6F900F0FEF900F068FCA6
:1004E00010BD0000F0B585B005460F46142213A1DB
:1004F0006846FFF77FFF012600241AE0285D0928DF
:1005000015DC285D1DF800200521222000F02EF9C1
:1005100032460621222000F029F90022062122205D
:1005200000F024F97006060E802E00D10126601C12
:10053000C4B2BC42E2DB05B0F0BD00003F065B4F39
:10054000666D7D077F6F777C585E79715C00000077
:10055000D0F8003412F0010F14BF0B438B43C0F8E6
:10056000003412F0020FD0F8202414BF114322EA05
:100570000101C0F8201470472DE9F00301264FF067
:10058000000C0325C2F3411706FA0CF40C4211D0FB
:10059000D0F8C48F4FEA4C0405FA04F928EA090898
:1005A000C0F8C48FD0F8C48F07FA04F448EA0404F2
:1005B000C0F8C44F0CF1010C0CF0FF0CBCF1080F9B
:1005C000E2D3D0F800C512F0010F14BF4CEA010CC1
:1005D0002CEA010CC0F800C5D0F804C512F0020FD7
:1005E00014BF4CEA010C2CEA010CC0F804C5D0F889
:1005F00008C512F0040F14BF4CEA010C2CEA010CE0
:10060000C0F808C5D0F818C512F0080F14BF4CEA9E
:10061000010C2CEA010CC0F818C512F0100FD0F82C
:100620003C2514BF0A438A43C0F83C25D0F80C256A
:1006300013F0010F14BF0A438A43C0F80C25D0F809
:10064000102513F0020F14BF0A438A43C0F8102587
:10065000D0F8142513F0040F14BF0A438A43C0F8DE
:100660001425D0F81C2513F0080F14BF0A438A4341
:10067000C0F81C25D0F8442513F4007F14BF0A43AA
:100680008A43C0F84425D0F8402513F4407F14BFB6
:100690000A438A43C0F84025D0F82825002B0CBF18
:1006A000114322EA0101C0F82815BDE8F0037047A4
:1006B0000E4AC0F30741D26E01238B401A420C4A06
:1006C0001ABF02EBC101496852F83110020AD1F891
:1006D0002C354FF00F0C0CFA02FC00F00F0023EA4F
:1006E0000C0390401843C1F82C05704700E00F4000
:1006F0006810000050F82100704730B50C460546E0
:100700000022FFF725FF21462846BDE83040082398
:100710000122FFF731BF30B50C4605460823012200
:10072000FFF72AFF21462846BDE830400122FFF7A7
:100730000FBF30B50C4605460222FFF709FF2146E0
:100740002846BDE8304009230122FFF715BF30B528
:100750000C4605460222FFF7FBFE21462846BDE86F
:10076000304008230122FFF707BF00002DE9F041C8
:1007700004460F46154600BF184800F031F800281F
:10078000FAD100222146154800F070F83946134886
:1007900000F02EF80321114800F028F800BF0F48A0
:1007A00000F01EF80028FAD10C4800F028F8C6B274
:1007B00029460A4800F01CF80521084800F016F800
:1007C00000BF064800F00CF80028FAD1034800F0FA
:1007D00016F8C6B23046BDE8F081000000000240C5
:1007E000406810F0010018BF012070474160704759
:1007F00081607047016A41F01001016270474068F2
:1008000010F0010F05D110F0120F1CBF00F01C00FA
:100810007047002070470000036A43F01003036232
:10082000002A14BF0E4A0F4A02EB820301EB830336
:1008300002EB820292005B1EB3FBF2F2521EC26018
:10084000D0F8C02F12F0010F08BF7047064A1144BC
:10085000521CB1FBF2F1491E41F08001C1607047AA
:10086000801A0600A08601007F47370142EA410155
:100870000160704710B5FFF71AFD002818BF01206E
:1008800010BD000010B5114800F0E8F900BF0F4896
:1008900000F0F8F90028FAD00C48C01C00F0DEF98E
:1008A00000BF0A48C01C00F0EDF90028F9D0012172
:1008B0000748FFF730FF03210648FFF71EFF0A2312
:1008C000012203210348FFF757FE10BD050800F081
:1008D0000050024000D0034010B51E4800F0BEF9A1
:1008E0001D4800F0BBF91D48FFF7E2FE1C48FFF76A
:1008F000DFFE04211B48FFF72AFF08211948FFF7F4
:1009000018FF0122184801681848FFF785FF1748AB
:10091000FFF770FFFF220C212220FFF727FF04467C
:1009200000220D212220FFF721FF044600220E2184
:100930002220FFF71BFF0446002203211820FFF7A7
:1009400015FF0446FF2201211820FFF70FFF044680
:1009500010BD0000002000F0010800F002080100B6
:10096000020C010000500040000000200000024086
:100970002DE9F003AF4D02462868AF4B1840A0F1B7
:100980008053B3F5A02359D002F03809DFF8AC82C8
:10099000C2F38414B9F1100F25D0B9F1300F04BFA0
:1009A00047F230504FF400130DD04FF03800904311
:1009B00004BF4FF40040C30105D012F0380F1CBF34
:1009C0000020034613D09E4F12F4605F4FF00006E4
:1009D00018BF00222CD057F8324044457DD307EB96
:1009E000C2025268E1E0002340461524EBE7A4F17F
:1009F0000900122822D29348D5F87CC04FF04C73DE
:100A000050F824002CF01C0C072CA8BF4CF0100C44
:100A1000C5F87CC02E6D4FF4002C16F4807FD2D127
:100A2000BCF1010C0AD02E6D16F4807FF8D0CAE715
:100A300012F0380F18BFB9F1100F04D0BDE8F00361
:100A40004FF000007047C2F30268DFF8FCC14FF0BE
:100A5000000257F83290E14503D307EBC202526817
:100A600003E0521C062AF4D33246C5F8C020D5F85C
:100A7000B020DFF8D8C102EA0C0242F00042C5F80B
:100A8000B020DFF8CCC1A4F109024C1E5CF828C0EC
:100A9000A444BCFBF1FCD5F8B0101943C5F8B01064
:100AA00008EBC80101EB41046A4902EB420201EB89
:100AB000C40101EB82046468C5F86441D5F864415F
:100AC0006FF0FF0808EB0C2C44EA0C0CC5F864C16D
:100AD00051F82210D5F8602100E061E002F4000234
:100AE0001143C5F86011D5F86011D5F86021C1F344
:100AF0008921C2F30904D5F86421C2F3042202F16A
:100B0000010CD5F8642102F01F02521CB0FBF2F078
:100B10004A09C2F100084443424301EB481104EB87
:100B20005212484302EB9020B0FBFCF0410808460B
:100B3000002257F832C0844503D307EBC200466851
:100B400002E0521C062AF4D3C5F8C060D5F8600153
:100B500010F4000F1DBFD5F8B00040F08040C5F87C
:100B6000B000D5F8600104BF40F40000C5F8600192
:100B70004FF40040D5F8682112F0010F02D1401E59
:100B80000028F7DC002808BF002148D0D5F8B000C5
:100B9000184340F0010040F01040C5F8B0003EE0BE
:100BA000521C062AFFF417AF3246C5F8C020D5F80C
:100BB000602122F40002C5F86021D5F8B020DFF8EA
:100BC00098C002EA0C0242F00042C5F8B0200029A9
:100BD00008BF4FF0000C0AD0B0FBF1FCBCF1000FD5
:100BE00018BFACF1010C0CF10101B0FBF1F10846AA
:100BF000002257F83240844203D307EBC200466814
:100C000002E0521C062AF4D3C5F8C060D5F8B00043
:100C100043EA8C22104340F00040C5F8B000D5F8FC
:100C2000B00020F47000C5F8B000BDE8F00308463D
:100C30007047000000E00F400000FF700024F40047
:100C40001C1300000011000040787D0100FC0FE043
:100C5000F81000006C110000FF0300EFC0F3072341
:100C60000749C0B2194401F07043C1F3130143EACC
:100C7000411141EA800040F000700122026070479B
:100C800000E60F40C0F307220849C0B2114401F04A
:100C90007042C1F3130142EA411141EA800040F081
:100CA00000700068002818BF0120704700EA0F405C
:100CB0004FF0E020016941F00501016170474FF0FC
:100CC000E020016941F00201016170474FF0E0212D
:100CD000401E48617047000010B52B480088401C3A
:100CE00080B229490880C82804DB00200880012040
:100CF0002649087026480088401C80B22449088094
:100D0000012804DB002008800120224908702248C5
:100D10000088401C80B220490880B0F57A7F04DB4F
:100D20000020088001201D49087003211C48FFF79E
:100D3000E1FC1C4908701C480078A8B1012820D1AA
:100D400008460078032803D10020174908700AE0FC
:100D50000E48007838B100200C490870134800880C
:100D6000401C124908800DE00E480078032807D087
:100D700001200D4908700D480088401C0B4908806F
:100D800000E000BF00BF10BD180000201D000020C3
:100D9000160000201C0000201A0000201E00002069
:100DA00000D003402D0000202C000020280000204F
:100DB00010B5084800684FF47A71B0FBF1F4204692
:100DC000FFF784FFFFF774FFFFF779FFFFF752FD8E
:100DD00010BD0000000000200448006840F47000CE
:100DE00002490860024803490860704788ED00E046
:100DF0000024F400300000202B4943F65050FFF748
:100E0000B7FD2A490860FFF764FB4CE028480078EA
:100E100038B100202649087026480088401C254922
:100E200008802548007800283DD00020224908701D
:100E3000204800883C2809DB1E4800883C381D49B2
:100E400008801E480088401C1C4908801B480088F8
:100E50003C2804DB194800883C38184908801748AA
:100E600000880A2190FBF1F01549087013480088AA
:100E70000A2190FBF1F201FB1200114948700D4864
:100E800000880A2190FBF1F00D498870094800881C
:100E90000A2190FBF1F201FB12000949C8700821F8
:100EA0000748FFF71FFBB1E70024F4000000002013
:100EB0001E000020280000201C0000202A00002026
:100EC0001F0000204FF04070E1EE100A7047000054
:100ED00000400040100000000080054010000000AD
:100EE000005000401100000000900540110000007B
:100EF000006000401200000000A005401200000049
:100F0000007000401300000000B005401300000016
:100F1000004002401400000000C005401400000022
:100F2000005002402E00000000D005402E000000BE
:100F3000006002402F00000000E005402F0000008C
:100F4000007002403000000000F00540300000005A
:100F500000D00340460000000000064046000000AC
:100F60000010064047000000002006404800000036
:100F7000003006407F000000004006408000000076
:100F80000050064084000000006006408C00000015
:100F900000400040100000000080054010000000EC
:100FA00000500040110000000090054011000000BA
:100FB000006000401200000000A005401200000088
:100FC000007000401300000000B005401300000056
:100FD000004002401400000000C005401400000062
:100FE000005002402E00000000D005402E000000FE
:100FF000006002402F00000000E005402F000000CC
:10100000007002403000000000F005403000000099
:1010100000D00340430000000000064043000000F1
:10102000001006404400000000200640450000007B
:101030000030064058000000004006405900000003
:10104000005006405C0000000060064064000000A4
:10105000007006406C000000008006406D0000003B
:10106000009006407F0000000040004000800540E6
:1010700000500040009005400060004000A0054086
:101080000070004000B005400040024000C0054034
:101090000050024000D005400060024000E00540E2
:1010A0000070024000F0054000D003400000064000
:1010B00000100640001006400020064000200640B8
:1010C0000030064000300640004006400040064028
:1010D0000050064000500640006006400060064098
:1010E0000070064000700640008006400080064008
:1010F000009006400090064000688909001C4E0ED2
:1011000040420F0000201C0080841E00008025004B
:10111000999E36000040380000093D0000803E00E6
:1011200000004B00404B4C0000204E00808D5B00C7
:1011300000C05D000080700000127A0000007D0099
:1011400080969800001BB7000080BB00C0E8CE006E
:10115000647ADA000024F4000000FA0080A812018A
:10116000002D310100366E0140787D014000000005
:1011700000000000000100003E0008000000000028
:1011800000010000A00000000200000000010000BB
:101190003454010000000000000100002B70060024
:1011A0000000000000010000280000000000000016
:1011B0000001000027000100000000000001000005
:1011C00020000000000000000001000050000000AE
:1011D00002000000000100001AAC00000000000046
:1011E0000001000017940900000000000001000049
:1011F0001698050000000000000100001400000027
:101200000000000000010000138008000000000042
:1012100000010000A0000000080000000001000024
:101220001000000000000000000100002800000085
:101230000200000000010000400000000400000067
:10124000000100006000000000000000000100003C
:101250005D000C00000000000001000050000000D4
:1012600000000000000100004E000200000000002D
:101270000001000041AC010000000000000100007E
:101280003C00000000000000000100003A8009005E
:10129000000000000001000030000000000000001D
:1012A0000001000028000000000000000001000014
:1012B000270001000000000000010000236006007C
:1012C0000000000000010000216008000000000094
:1012D000000100001E0000000000000000010000EE
:1012E0001DC00400000000000001000050000000CC
:1012F00002000000000100001800000000000000D3
:1013000000010000140000000000000000010000C7
:101310006000000004000000000100000024F40050
:1013200030003000005A6202910091000087930360
:10133000D200D20000B4C4041301130100E1F5058A
:1013400054015401000E2707950195016C1300000C
:1013500000000020340000003C020000A013000048
:101360003400002064020000580200000000000069
:101370003F065B4F666D7D077F6F777C585E7971A6
:101380005C000000000000000000000102000020DE
:101390002020200000000C00000000000024F400C9
:0400000500000201F4
:00000001FF
