:020000040000FA
:10000000A0030020C9020000D1020000D3020000BA
:10001000D5020000D7020000D90200000000000055
:10002000000000000000000000000000DB020000F3
:10003000DD02000000000000DF0200000D110000E2
:10004000E3020000E5020000E7020000E902000010
:10005000EB02000015120000EF020000F1020000A8
:10006000F3020000F5020000F7020000F9020000B0
:10007000FB020000FD020000FF020000010300007F
:10008000030300000503000007030000090300004C
:100090000B0300000D0300000F030000110300001C
:1000A00013030000150300001703000019030000EC
:1000B0001B0300001D0300001F03000021030000BC
:1000C000230300002503000027030000290300008C
:1000D0002B0300002D0300002F030000310300005C
:1000E000330300003503000037030000390300002C
:1000F0003B0300003D0300003F03000041030000FC
:1001000043030000450300004703000049030000CB
:100110004B0300004D0300004F030000510300009B
:10012000530300005503000057030000590300006B
:100130005B0300005D0300005F030000610300003B
:1001400063030000650300006703000081030000F3
:100150000000000000000000830300008503000091
:100160008703000089030000000000008B030000EB
:100170008D0300008F030000910300009303000033
:100180009503000097030000990300009B03000003
:100190009D0300009F030000A1030000A3030000D3
:1001A000A5030000A7030000A9030000AB030000A3
:1001B000AD030000AF030000B1030000B303000073
:1001C000B5030000B7030000B9030000BB03000043
:1001D000BD030000BF030000C1030000C303000013
:1001E000C5030000C7030000C9030000CB030000E3
:1001F000CD030000CF030000D1030000D3030000B3
:1002000000F002F800F03CF80AA090E8000C8244EC
:100210008344AAF10107DA4501D100F031F8AFF2C9
:10022000090EBAE80F0013F0010F18BFFB1A43F0D4
:10023000010318475C1B00007C1B0000103A24BF20
:1002400078C878C1FAD8520724BF30C830C144BF3B
:1002500004680C607047000000230024002500267D
:10026000103A28BF78C1FBD8520728BF30C148BF19
:100270000B6070471FB501F09FFA1FBD10B510BD90
:1002800000F0A3F91146FFF7F5FF01F083F800F045
:10029000C1F903B4FFF7F2FF03BC00F0C9F9000095
:1002A000EFF3108072B67047EFF310807047EFF3F2
:1002B000108062B6704730BF704780F31188704776
:1002C000EFF31180704700004548804745480047DC
:1002D000FEE7FEE7FEE7FEE7FEE7FEE7FEE7FEE7F6
:1002E000FEE7FEE7FEE7FEE7FEE7FEE7FEE7FEE7E6
:1002F000FEE7FEE7FEE7FEE7FEE7FEE7FEE7FEE7D6
:10030000FEE7FEE7FEE7FEE7FEE7FEE7FEE7FEE7C5
:10031000FEE7FEE7FEE7FEE7FEE7FEE7FEE7FEE7B5
:10032000FEE7FEE7FEE7FEE7FEE7FEE7FEE7FEE7A5
:10033000FEE7FEE7FEE7FEE7FEE7FEE7FEE7FEE795
:10034000FEE7FEE7FEE7FEE7FEE7FEE7FEE7FEE785
:10035000FEE7FEE7FEE7FEE7FEE7FEE7FEE7FEE775
:10036000FEE7FEE7FEE7FEE7FEE7FEE7FEE7FEE765
:10037000FEE7FEE7FEE7FEE7FEE7FEE7FEE7FEE755
:10038000FEE7FEE7FEE7FEE7FEE7FEE7FEE7FEE745
:10039000FEE7FEE7FEE7FEE7FEE7FEE7FEE7FEE735
:1003A000FEE7FEE7FEE7FEE7FEE7FEE7FEE7FEE725
:1003B000FEE7FEE7FEE7FEE7FEE7FEE7FEE7FEE715
:1003C000FEE7FEE7FEE7FEE7FEE7FEE7FEE7FEE705
:1003D000FEE7FEE704480549034A054B7047000065
:1003E000CD11000001020000A0010020A0030020A8
:1003F000A001002010B5431C02E010F8011B71B1F0
:100400008107FAD14FF0013202C88C1A8C4314EAEA
:10041000C211F9D0C01A0A0603D0C01E10BDC01AFE
:1004200010BD0A0401D0801E10BD0902FCD0401E80
:1004300010BD40EA010370B59B072ED14FF0013685
:10044000042A2AD308C810C99D1B9D43121F15EA10
:10045000C61517D0D8B2E1B2401A50EA056110D1E2
:1004600098B2A1B2401A50EA05410AD123F07F4068
:1004700024F07F41401A50EA052102D1180EA0EB6A
:10048000146070BDA342DBD018BA21BA884201D9EA
:10049000012070BD4FF0FF3070BD0AB9002070BD63
:1004A00010F8013B11F8014B63B1A3420AD1521E6F
:1004B00008D010F8013B11F8014B1BB1A34201D148
:1004C000521EEDD1181B70BD421E12F8013F002BC9
:1004D000FBD111F8013B002B02F8013BF9D1704729
:1004E00010B5203AC0F00B80B1E81850203AA0E8CF
:1004F0001850B1E81850A0E81850BFF4F5AF5FEA03
:10050000027C24BFB1E81850A0E8185044BF18C9B5
:1005100018C0BDE810405FEA827C24BF51F8043B5C
:1005200040F8043B08BF7047D20728BF31F8023BB0
:1005300048BF11F8012B28BF20F8023B48BF00F844
:10054000012B70474FF0013C50F8042B51F8043B4D
:100550009A4221D1A2EB0C03934313EACC1317D197
:1005600050F8042B51F8043B9A4215D1A2EB0C032E
:10057000934313EACC130BD150F8042B51F8043BEE
:100580009A4209D1A2EB0C03934313EACC13DBD0BC
:100590004FF00000704700BFD01A01BAB1FA81F1E4
:1005A00001F0180122FA01F0CB40C1F12001DBB2C9
:1005B000C0B2C01A2CFA01F3D11A914311EAC31147
:1005C000E6D17047704770477047754600F02CF8C9
:1005D000AE4605006946534620F00700854618B030
:1005E00020B5FFF7F7FEBDE820404FF000064FF0C2
:1005F00000074FF000084FF0000B21F00701AC4658
:10060000ACE8C009ACE8C009ACE8C009ACE8C00976
:100610008D46704710B50446AFF300802046BDE814
:100620001040FFF736BE0000004870473C01002034
:1006300001491820ABBEFEE726000200704700000B
:1006400030B53C2A04DBA2F13C03DAB24B1CD9B230
:100650003C2904DBA1F13C03D9B2431CD8B21828D1
:1006600002DBA0F11803D8B2274B1870274B197082
:10067000274B1A70244B1B780A2493FBF4F3303376
:10068000DBB2244C2370244C23701F4B1B780A24AC
:1006900093FBF4F504FB15333033DBB21D4C637070
:1006A0001D4C6370194B1B780A2493FBF4F3303311
:1006B000DBB2184CE370184CE370144B1B780A241F
:1006C00093FBF4F504FB15333033DBB2114C23718B
:1006D000114C23710E4B1B780A2493FBF4F3303337
:1006E000DBB20C4CA3710C4CA371094B1B780A2490
:1006F00093FBF4F504FB15333033DBB2054CE371A7
:10070000054CE37130BD0000290000202A000020C4
:100710002B0000202F0000203700002010B51749C3
:10072000174800F03FFB1749086000F071FA00F02D
:10073000AFFA00F0FFFA134800684FF47A71B0FB8B
:10074000F1F4204600F0DCFC00F0CCFC00F0D1FC21
:10075000152000F0FBF950210B4800F0F5FD00F0EA
:1007600027FA032000F02CFAE021152000F036FAD9
:1007700003210F2000F032FA10BD0000002D3101DE
:10078000800600F11000002000C000402DE9F0417B
:1007900005460E46002426E0285D3038002803D4A4
:1007A000285D3038092802DD285D2D2819D1285D03
:1007B0002D2802D0285D303800E01120C7B20C4847
:1007C000C25D0521222000F03DF90120A040C2B207
:1007D0000621222000F036F900220621222000F016
:1007E00031F9601CC4B2B442D6DBBDE8F081000030
:1007F0001400002010B502A000F0BEFD10BD0000E6
:100800004552524F52210000D0F8003412F0010F2F
:1008100014BF0B438B43C0F8003412F0020FD0F822
:10082000202414BF114322EA0101C0F820147047AC
:100830002DE9F00301264FF0000C0325C2F3411708
:1008400006FA0CF40C4211D0D0F8C48F4FEA4C04D5
:1008500005FA04F928EA0908C0F8C48FD0F8C48F53
:1008600007FA04F448EA0404C0F8C44F0CF1010C80
:100870000CF0FF0CBCF1080FE2D3D0F800C512F069
:10088000010F14BF4CEA010C2CEA010CC0F800C5A2
:10089000D0F804C512F0020F14BF4CEA010C2CEA88
:1008A000010CC0F804C5D0F808C512F0040F14BF3D
:1008B0004CEA010C2CEA010CC0F808C5D0F818C5A8
:1008C00012F0080F14BF4CEA010C2CEA010CC0F81E
:1008D00018C512F0100FD0F83C2514BF0A438A4304
:1008E000C0F83C25D0F80C2513F0010F14BF0A43C3
:1008F0008A43C0F80C25D0F8102513F0020F14BF5E
:100900000A438A43C0F81025D0F8142513F0040FC9
:1009100014BF0A438A43C0F81425D0F81C2513F0ED
:10092000080F14BF0A438A43C0F81C25D0F8442599
:1009300013F4007F14BF0A438A43C0F84425D0F85B
:10094000402513F4407F14BF0A438A43C0F8402572
:10095000D0F82825002B0CBF114322EA0101C0F872
:100960002815BDE8F00370470E4AC0F30741D26E68
:1009700001238B401A420C4A1ABF02EBC10149689D
:1009800052F83110020AD1F82C354FF00F0C0CFA46
:1009900002FC00F00F0023EA0C0390401843C1F85A
:1009A0002C05704700E00F407019000050F821003E
:1009B000704730B50C4605460022FFF725FF21465B
:1009C0002846BDE8304008230122FFF731BF30B58B
:1009D0000C46054608230122FFF72AFF2146284638
:1009E000BDE830400122FFF70FBF30B50C46054689
:1009F0000222FFF709FF21462846BDE830400923BF
:100A00000122FFF715BF30B50C4605460222FFF75D
:100A1000FBFE21462846BDE8304008230122FFF7AF
:100A200007BF30B50C4605460222FFF7EDFE214612
:100A30002846BDE8304008230122FFF7F9BE40F800
:100A4000212070472DE9F04104460F46154600BFAE
:100A5000184800F031F80028FAD100222146154844
:100A600000F070F83946134800F02EF803211148C1
:100A700000F028F800BF0F4800F01EF80028FAD157
:100A80000C4800F028F8C6B229460A4800F01CF8C5
:100A90000521084800F016F800BF064800F00CF8E1
:100AA0000028FAD1034800F016F8C6B23046BDE877
:100AB000F081000000000240406810F0010018BF03
:100AC000012070474160704781607047016A41F0C2
:100AD000100101627047406810F0010F05D110F05D
:100AE000120F1CBF00F01C00704700207047000070
:100AF000036A43F010030362002A14BF0E4A0F4A30
:100B000002EB820301EB830302EB820292005B1E85
:100B1000B3FBF2F2521EC260D0F8C02F12F0010FE8
:100B200008BF7047064A1144521CB1FBF2F1491E3E
:100B300041F08001C1607047801A0600A086010064
:100B40007F47370142EA4101016070471649042896
:100B500004BF086840F4803018D0052804BF086836
:100B600040F4003012D0062812D00F2815D01028DB
:100B700038BF7047103800F01F01012202FA01F15E
:100B800042090A4850F82200016070470860704727
:100B9000086840F48020086070474FF0E020016949
:100BA00041F002010161704724ED00E0BC1A000031
:100BB00010B5FFF77CFB002818BF012010BD000016
:100BC000044951F82000044940F0FD7040F0806075
:100BD00008607047001A00000CED00E0084A20F0A1
:100BE0000303D25813688007C00E4FF0FF0C0CFAB5
:100BF00000FC23EA0C0301FA00F018431060704770
:100C0000201A0000014910380860704700EF00E02A
:100C100010B51B4800F03CFA00BF194800F04CFA30
:100C20000028FAD01648C01C00F032FA00BF144861
:100C3000C01C00F041FA0028F9D01148C01D00F096
:100C400027FA00BF0E48C01D00F036FA0028F9D080
:100C500001210C48FFF7BBFE01210B48FFF7B7FE4F
:100C600002210948FFF7B3FE03210848FFF7A1FE60
:100C70000A23012203210548FFF7DAFD10BD000019
:100C8000050800F0005002400040064000D003403C
:100C900010B5204800F0FCF91F4800F0F9F91F4892
:100CA000FFF762FE1E48FFF75FFE04211D48FFF7B5
:100CB000AAFE08211B48FFF798FE01221A48016886
:100CC0001A48FFF715FF1948FFF700FFFF220C2114
:100CD0002220FFF7B7FE1649087000220D212220BE
:100CE000FFF7B0FE1249087000220E212220FFF704
:100CF000A9FE0F490870002203211820FFF7A2FE69
:100D00000B490870FF2201211820FFF79BFE0849BC
:100D1000087010BD002000F0010800F0020801007A
:100D2000020C0100005000401000002000000240B2
:100D30000C00002010B5124800F0AAF9114800F08C
:100D4000A7F900BF0F4800F0B7F90028FAD001203A
:100D5000FFF70AFE40F20140FFF706FE03214FF0C5
:100D60004020FFF75EFE60234FF4E1320648016841
:100D7000064800F0B0FA06A000F0F0FA10BD00003E
:100D8000001800F0000800F01000002000C0004033
:100D90000D0A48656C6C6F2C20776F726C64210DA6
:100DA0000A0000002DE9F003AF4D02462868AF4B62
:100DB0001840A0F18053B3F5A02359D002F03809B0
:100DC000DFF8AC82C2F38414B9F1100F25D0B9F169
:100DD000300F04BF47F230504FF400130DD04FF0E6
:100DE0003800904304BF4FF40040C30105D012F017
:100DF000380F1CBF0020034613D09E4F12F4605FD3
:100E00004FF0000618BF00222CD057F8324044455E
:100E10007DD307EBC2025268E1E00023404615246F
:100E2000EBE7A4F10900122822D29348D5F87CC040
:100E30004FF04C7350F824002CF01C0C072CA8BF6A
:100E40004CF0100CC5F87CC02E6D4FF4002C16F43D
:100E5000807FD2D1BCF1010C0AD02E6D16F4807FB8
:100E6000F8D0CAE712F0380F18BFB9F1100F04D04C
:100E7000BDE8F0034FF000007047C2F30268DFF8EE
:100E8000FCC14FF0000257F83290E14503D307EB65
:100E9000C202526803E0521C062AF4D33246C5F857
:100EA000C020D5F8B020DFF8D8C102EA0C0242F029
:100EB0000042C5F8B020DFF8CCC1A4F109024C1EF5
:100EC0005CF828C0A444BCFBF1FCD5F8B010194371
:100ED000C5F8B01008EBC80101EB41046A4902EB08
:100EE000420201EBC40101EB82046468C5F864416D
:100EF000D5F864416FF0FF0808EB0C2C44EA0C0CA9
:100F0000C5F864C151F82210D5F8602100E061E015
:100F100002F400021143C5F86011D5F86011D5F84C
:100F20006021C1F38921C2F30904D5F86421C2F319
:100F3000042202F1010CD5F8642102F01F02521CB8
:100F4000B0FBF2F04A09C2F100084443424301EB0E
:100F5000481104EB5212484302EB9020B0FBFCF026
:100F600041080846002257F832C0844503D307EBF6
:100F7000C200466802E0521C062AF4D3C5F8C060DD
:100F8000D5F8600110F4000F1DBFD5F8B00040F097
:100F90008040C5F8B000D5F8600104BF40F40000FF
:100FA000C5F860014FF40040D5F8682112F0010F38
:100FB00002D1401E0028F7DC002808BF002148D0DD
:100FC000D5F8B000184340F0010040F01040C5F8DB
:100FD000B0003EE0521C062AFFF417AF3246C5F8B7
:100FE000C020D5F8602122F40002C5F86021D5F8B0
:100FF000B020DFF898C002EA0C0242F00042C5F8C7
:10100000B020002908BF4FF0000C0AD0B0FBF1FC63
:10101000BCF1000F18BFACF1010C0CF10101B0FBE9
:10102000F1F10846002257F83240844203D307EB1F
:10103000C200466802E0521C062AF4D3C5F8C0601C
:10104000D5F8B00043EA8C22104340F00040C5F8C8
:10105000B000D5F8B00020F47000C5F8B000BDE8CD
:10106000F00308467047000000E00F400000FF70EA
:101070000024F400301D0000141B000040787D01A6
:1010800000FC0FE00C1B0000801B0000FF0300EFC2
:10109000C0F307230749C0B2194401F07043C1F3FC
:1010A000130143EA411141EA800040F0007001223F
:1010B0000260704700E60F40C0F307220849C0B243
:1010C000114401F07042C1F3130142EA411141EAB7
:1010D000800040F000700068002818BF01207047B1
:1010E00000EA0F404FF0E020016941F00501016185
:1010F00070474FF0E020016941F002010161704743
:101100004FF0E021401E48617047000010B52548AF
:101110000088401C80B223490880B0F57A7F04DB48
:101120000020088001202049087020480088401CC9
:1011300080B21E490880642804DB0020088001205A
:101140001B4908701B480088401C80B21949088060
:101150000A2804DB0020088001201749087017487E
:101160000088401C80B215490880012804DB00205B
:10117000088001201249087001211248FFF716FC6F
:1011800050B900200C490870094908700122114625
:101190000D48FFF754FC04E0002201210A48FFF744
:1011A0004EFC10BD060000200B00002004000020B3
:1011B0000A0000200200002009000020000000209A
:1011C0000800002000D003400040064004480068AA
:1011D00040F4700002490860024803490860704703
:1011E00088ED00E00024F4007000002010B586B007
:1011F0001422064901A8FFF773F9054901A8FFF772
:1012000063F9044600F0B8F806B010BDC41700003A
:101210003700002010B501211C4800F099F8044661
:1012200021461A4800F08EF829E0184800F038F8F6
:1012300017490870084600780D2816D0084600782F
:10124000612807DB084600787A2803DC0846007826
:10125000203808700E4801780E4802780078401C4B
:101260000C4B18700C48815409E001200B490870A0
:1012700000200949074A1278885406490870034833
:1012800000F024F80028D0D110BD000000C00040BC
:1012900026000020280000207400002027000020E5
:1012A000816911F0100F0CBF00684FF0FF307047DC
:1012B000826912F0200FFBD101607047826912F041
:1012C000200F06BF016001200020704780690121C6
:1012D00021EA10107047D0F818C01CF0080FFAD19E
:1012E000D0F82CC02CF0100CC0F82CC0D0F830C0B6
:1012F0002CF0010C2CF4407CC0F830C0D0F830C089
:10130000B1EB021F34BF4CF0200C2CF0200CC0F8C5
:1013100030C038BF5208C900B1FBF2F1491C49087E
:101320008A09426201F03F018162C362002181614A
:10133000C16A41F01001C162016B40F201321143F8
:101340000163704741647047826B1143816370474A
:10135000002914BF006CC06B7047000010B5044634
:1013600004E014F8011B0348FFF7A2FF20780028CF
:10137000F7D110BD00C0004010B5044604E014F8D9
:10138000011B0348FFF79AFF20780028F7D110BD12
:1013900000C000400EB5E0A103C9CDE90001FFF790
:1013A000BDF9B7E102E01520FFF72CFC0221DC4873
:1013B000FFF7FCFA0028F6D0DA48007800286ED053
:1013C0000020D8490870D8A1DA48FFF7BBF810B957
:1013D000D9A0FFF7D1FFDBA1D648FFF7B3F810B9CA
:1013E000DCA0FFF7C9FFE0A1D248FFF7ABF808B9CE
:1013F000FFF7FCFE0422DFA1CE48FFF71AF830B158
:101400000422DEA1CB48FFF714F8002864D1C948B4
:1014100040793038C7490979303901EB810100EB57
:101420004100D8490870C348007A3038C149C979A9
:10143000303901EB810100EB4100D3490870BD4810
:10144000C07A3038BB49897A303901EB810100EB31
:101450004100CE490870B74880793A2803D0B54892
:10146000407A3A280BD1C7480078182807DAC648CE
:1014700000783C2803DAC54800783C2802DBFFF7F7
:10148000B9F929E0AB484078532809D1BF48027820
:10149000BD480178BB480078FFF7D2F81AE0E7E0D2
:1014A000BA4B1B78DFF8E8C29CF800C06344DAB29C
:1014B000B54B1B78DFF8DCC29CF800C06344D9B29E
:1014C000B04B1B78DFF8D0C29CF800C06344D8B2A0
:1014D000FFF7B6F8FFF78AFE4FF0000842E0AF488A
:1014E00050F8281003229348401CFEF7A2FFF8B9D9
:1014F0009048807930388F494979303901EB810142
:1015000000EB410000F0FF09B9F10B0F24DC894822
:1015100000792B280DD109EB08000C2190FBF1F28A
:1015200001FB12009D4951F820A05046FFF724FF0F
:1015300014E0804800792D2810D1A8EB09000C3068
:101540000C2190FBF1F201FB1200944951F820A00C
:101550005046FFF711FF01E0FFF74CF908F10100D9
:1015600000F0FF08B8F10C0FB9DB7248FEF742FF3C
:101570000C287DD16F48C0783A2879D16D48407ADF
:101580003A2875D16B48807830386A4949783039C3
:1015900001EB810100EB4100C4B26648407930386C
:1015A00064490979303901EB810100EB4100C5B292
:1015B0006048007A30385F49C979303901EB8101E0
:1015C00000EB4100C6B25B48C07A30385949897A8D
:1015D000303901EB810100EB4100C7B23C2C58DAF5
:1015E0003C2D56DA3C2E54DA3C2F52DA51488079A1
:1015F0002B2810D1E819C5B2A019C4B23C2D04DBC8
:10160000A5F13C00C5B2601CC4B23C2C1BDBA4F1AC
:101610003C00C4B217E0474880792D2813D1BD4261
:1016200006DA05F13C00C01BC5B2701CC6B201E071
:10163000E81BC5B2B44204DA04F13C00801BC4B21A
:1016400001E0A01BC4B20A2094FBF0F03030C0B21D
:101650008DF800000A2094FBF0F100FB11403030BF
:10166000C0B28DF801000A2095FBF0F0303000E0A8
:1016700011E0C0B28DF803000A2095FBF0F100FBE9
:1016800011503030C0B28DF804006846FFF774FE88
:1016900001E0FFF7AFF84248007830B10020404940
:1016A000087008213F48FFF771F83F48007808B3F9
:1016B00000203D490870BDF80800401C80B202902F
:1016C0001E2817DB002002903848007828B101223C
:1016D00011463748FFF7B3F904E0002201213448EE
:1016E000FFF7ADF93148007808B9012000E000208B
:1016F0002E4908702F48007860B100202D490870ED
:1017000023480078401CC2B2224801782248007861
:10171000FEF796FF46E6000031323A303000000016
:1017200000D00340270000200A41542B434C415372
:101730005300000074000020434C415353323234B4
:10174000310000000A41542B53545544454E544334
:101750004F444500434F4445353232303231393100
:1017600030313231000000000A47455454494D459C
:10177000000000000A534554000000000A494E438F
:10178000000000002C0000202D0000202E00002072
:101790002B0000202A00002029000020400000200B
:1017A000080000202F000020090000200F0000206A
:1017B000005002400B0000204FF04070E1EE100A94
:1017C0007047000054494D45000000000000000033
:1017D0000000000000000000004000401000000079
:1017E0000080054010000000005000401100000083
:1017F0000090054011000000006000401200000051
:1018000000A005401200000000700040130000001E
:1018100000B005401300000000400240140000002A
:1018200000C0054014000000005002402E000000DF
:1018300000D005402E000000006002402F00000094
:1018400000E005402F000000007002403000000062
:1018500000F005403000000000D0034046000000CA
:10186000000006404600000000100640470000004F
:101870000020064048000000003006407F000000C5
:101880000040064080000000005006408400000038
:10189000006006408C000000004000401000000086
:1018A00000800540100000000050004011000000C2
:1018B0000090054011000000006000401200000090
:1018C00000A005401200000000700040130000005E
:1018D00000B005401300000000400240140000006A
:1018E00000C0054014000000005002402E0000001F
:1018F00000D005402E000000006002402F000000D4
:1019000000E005402F0000000070024030000000A1
:1019100000F005403000000000D00340430000000C
:101920000000064043000000001006404400000094
:10193000002006404500000000300640580000002E
:101940000040064059000000005006405C000000C6
:101950000060064064000000007006406C0000005B
:10196000008006406D000000009006407F000000EF
:1019700000400040008005400050004000900540BD
:101980000060004000A005400070004000B005402D
:101990000040024000C005400050024000D0054019
:1019A0000060024000E005400070024000F0054089
:1019B00000D0034000000640001006400010064022
:1019C000002006400020064000300640003006405F
:1019D00000400640004006400050064000500640CF
:1019E000006006400060064000700640007006403F
:1019F00000800640008006400090064000900640AF
:101A000000070000000600000005000000040000C0
:101A100000030000000200000001000000000000C0
:101A20000000000018ED00E01CED00E020ED00E0FB
:101A300000E400E004E400E008E400E00CE400E07E
:101A400010E400E014E400E018E400E01CE400E02E
:101A500020E400E024E400E028E400E02CE400E0DE
:101A600030E400E034E400E038E400E03CE400E08E
:101A700040E400E044E400E048E400E04CE400E03E
:101A800050E400E054E400E058E400E05CE400E0EE
:101A900060E400E064E400E068E400E06CE400E09E
:101AA00070E400E074E400E078E400E07CE400E04E
:101AB00080E400E084E400E088E400E000E100E08D
:101AC00004E100E008E100E00CE100E010E100E0EA
:101AD00080E100E084E100E088E100E08CE100E0EA
:101AE00090E100E000E200E004E200E008E200E053
:101AF0000CE200E010E200E080E200E084E200E0BE
:101B000088E200E08CE200E090E200E000688909F1
:101B1000001C4E0E40420F0000201C0080841E005E
:101B200000802500999E36000040380000093D00E5
:101B300000803E0000004B00404B4C0000204E0057
:101B4000808D5B0000C05D000080700000127A0094
:101B500000007D0080969800001BB7000080BB004D
:101B6000C0E8CE00647ADA000024F4000000FA0035
:101B700080A81201002D310100366E0140787D01F0
:101B80004000000000000000000100003E000800CE
:101B90000000000000010000A000000002000000A2
:101BA00000010000345401000000000000010000AA
:101BB0002B7006000000000000010000280000005B
:101BC00000000000000100002700010000000000EC
:101BD00000010000200000000000000000010000E3
:101BE0005000000002000000000100001AAC0000DC
:101BF0000000000000010000179409000000000030
:101C0000000100001698050000000000000100001F
:101C10001400000000000000000100001380080014
:101C20000000000000010000A0000000080000000B
:101C30000001000010000000000000000001000092
:101C40002800000002000000000100004000000029
:101C5000040000000001000060000000000000001F
:101C6000000100005D000C00000000000001000009
:101C70005000000000000000000100004E000200C3
:101C8000000000000001000041AC01000000000065
:101C9000000100003C000000000000000001000006
:101CA0003A80090000000000000100003000000040
:101CB00000000000000100002800000000000000FB
:101CC00000010000270001000000000000010000EA
:101CD00023600600000000000001000021600800F1
:101CE00000000000000100001E00000000000000D5
:101CF000000100001DC00400000000000001000001
:101D00005000000002000000000100001800000068
:101D100000000000000100001400000000000000AE
:101D2000000100006000000004000000000100004D
:101D30000024F40030003000005A6202910091004B
:101D400000879303D200D20000B4C404130113012E
:101D500000E1F50554015401000E27079501950196
:101D60004645420044454300415547004A554C0012
:101D70004A414E004A554E00534550004D415200D5
:101D8000415052004F4354004E4F56004D415900B0
:101D9000B01D000000000020740000003C020000A4
:101DA000241E0000740000202C03000058020000D4
:101DB0000000000000000000000000000000000023
:101DC000000000003F065B4F666D7D077F6F777CEC
:101DD000585E79715C400000000C0000000000318A
:101DE000322D30302D303031323A30303A30300010
:101DF000701D0000601D00007C1D0000801D0000A3
:101E00008C1D0000741D00006C1D0000681D00008A
:101E1000781D0000841D0000881D0000641D000066
:041E20000024F400A6
:0400000500000201F4
:00000001FF
