:020000040000FA
:10400000100C00200943000011430000134300007E
:104010001543000017430000194300000000000092
:104020000000000000000000000000001B43000032
:104030001D430000000000001F430000B9640000A1
:1040400023430000254300002743000029430000CC
:104050002B430000C96700002F43000031430000DC
:10406000334300003543000037430000394300006C
:104070003B4300003D4300003F430000414300003C
:10408000434300004543000047430000494300000C
:104090004B430000AD6500004F430000514300005A
:1040A00053430000554300005743000059430000AC
:1040B0005B4300005D4300005F430000614300007C
:1040C000634300006543000067430000694300004C
:1040D0006B4300006D4300006F430000714300001C
:1040E00073430000754300007743000079430000EC
:1040F0007B4300007D4300007F43000081430000BC
:10410000834300008543000087430000894300008B
:104110008B4300008D4300008F430000914300005B
:10412000934300009543000097430000994300002B
:104130009B4300009D4300009F430000A1430000FB
:10414000A3430000A5430000A7430000C1430000B3
:104150000000000000000000C3430000C543000051
:10416000C7430000C943000000000000CB4300002B
:10417000CD430000CF430000D1430000D3430000F3
:10418000D5430000D7430000D9430000DB430000C3
:10419000DD430000DF430000E1430000E343000093
:1041A000E5430000E7430000E9430000EB43000063
:1041B000ED430000EF430000F1430000F343000033
:1041C000F5430000F7430000F9430000FB43000003
:1041D000FD430000FF4300000144000003440000D1
:1041E0000544000007440000094400000B4400009F
:1041F0000D4400000F44000011440000134400006F
:1042000000F002F800F05CF80AA090E8000C82448C
:104210008344AAF10107DA4501D100F051F8AFF269
:10422000090EBAE80F0013F0010F18BFFB1A43F094
:104230000103184740370000603700000A444FF080
:10424000000C10F8013B13F0070408BF10F8014BF5
:104250001D1108BF10F8015B641E05D010F8016B3A
:10426000641E01F8016BF9D113F0080F1EBF10F89E
:10427000014BAD1C0C1B09D16D1E58BF01F801CBC1
:10428000FAD505E014F8016B01F8016B6D1EF9D544
:104290009142D6D370470000002300240025002659
:1042A000103A28BF78C1FBD8520728BF30C148BF99
:1042B0000B6070471FB503F076F81FBD10B510BD39
:1042C00000F0A9F91146FFF7F5FF02F0FFFC00F03E
:1042D000C7F903B4FFF7F2FF03BC00F0CFF9000009
:1042E000EFF3108072B67047EFF310807047EFF372
:1042F000108062B6704730BF704780F311887047F6
:10430000EFF311807047000045488047454800475B
:10431000FEE7FEE7FEE7FEE7FEE7FEE7FEE7FEE775
:10432000FEE7FEE7FEE7FEE7FEE7FEE7FEE7FEE765
:10433000FEE7FEE7FEE7FEE7FEE7FEE7FEE7FEE755
:10434000FEE7FEE7FEE7FEE7FEE7FEE7FEE7FEE745
:10435000FEE7FEE7FEE7FEE7FEE7FEE7FEE7FEE735
:10436000FEE7FEE7FEE7FEE7FEE7FEE7FEE7FEE725
:10437000FEE7FEE7FEE7FEE7FEE7FEE7FEE7FEE715
:10438000FEE7FEE7FEE7FEE7FEE7FEE7FEE7FEE705
:10439000FEE7FEE7FEE7FEE7FEE7FEE7FEE7FEE7F5
:1043A000FEE7FEE7FEE7FEE7FEE7FEE7FEE7FEE7E5
:1043B000FEE7FEE7FEE7FEE7FEE7FEE7FEE7FEE7D5
:1043C000FEE7FEE7FEE7FEE7FEE7FEE7FEE7FEE7C5
:1043D000FEE7FEE7FEE7FEE7FEE7FEE7FEE7FEE7B5
:1043E000FEE7FEE7FEE7FEE7FEE7FEE7FEE7FEE7A5
:1043F000FEE7FEE7FEE7FEE7FEE7FEE7FEE7FEE795
:10440000FEE7FEE7FEE7FEE7FEE7FEE7FEE7FEE784
:10441000FEE7FEE704480549034A054B70470000E4
:104420008D65000001420000100A0020100C0020E1
:10443000100A002040EA0103024630B59B0710D164
:104440004FF0013400E008C208C91D1B9D4315EA66
:10445000C41FF8D013F0FF0102F8011B0DD01B0A96
:10446000F8E711F8013B002B02F8013B05D011F8E9
:10447000013B002B02F8013BF3D130BD40EA0103C0
:1044800070B59B072ED14FF00136042A2AD308C8F5
:1044900010C99D1B9D43121F15EAC61517D0D8B22F
:1044A000E1B2401A50EA056110D198B2A1B2401AA7
:1044B00050EA05410AD123F07F4024F07F41401AA1
:1044C00050EA052102D1180EA0EB146070BDA34282
:1044D000DBD018BA21BA884201D9012070BD4FF053
:1044E000FF3070BD0AB9002070BD10F8013B11F813
:1044F000014B63B1A3420AD1521E08D010F8013B10
:1045000011F8014B1BB1A34201D1521EEDD1181B72
:1045100070BD421E12F8013F002BFBD111F8013B88
:10452000002B02F8013BF9D1704710B5203AC0F0DA
:104530000B80B1E81850203AA0E81850B1E81850A4
:10454000A0E81850BFF4F5AF5FEA027C24BFB1E8E1
:104550001850A0E8185044BF18C918C0BDE8104052
:104560005FEA827C24BF51F8043B40F8043B08BF5B
:104570007047D20728BF31F8023B48BF11F8012B22
:1045800028BF20F8023B48BF00F8012B704700000D
:104590004FF0013C50F8042B51F8043B9A4221D1D2
:1045A000A2EB0C03934313EACC1317D150F8042B5E
:1045B00051F8043B9A4215D1A2EB0C03934313EA42
:1045C000CC130BD150F8042B51F8043B9A4209D17B
:1045D000A2EB0C03934313EACC13DBD04FF00000A3
:1045E000704700BFD01A01BAB1FA81F101F0180189
:1045F00022FA01F0CB40C1F12001DBB2C0B2C01AF7
:104600002CFA01F3D11A914311EAC311E6D1704794
:10461000704770477047754600F02CF8AE460500AD
:104620006946534620F00700854618B020B5FFF7CD
:10463000F1FEBDE820404FF000064FF000074FF0BC
:1046400000084FF0000B21F00701AC46ACE8C009B0
:10465000ACE8C009ACE8C009ACE8C0098D467047B9
:1046600010B50446AFF300802046BDE81040FFF7C8
:1046700030BE000000487047AC09002001491820F6
:10468000ABBEFEE7260002007047000030B51E4BAF
:1046900018701E4B19701E4B1A701B4B1B780A2486
:1046A00093FBF4F330331B4C2370174B1B780A2415
:1046B00093FBF4F504FB15333033164C6370134B46
:1046C0001B780A2493FBF4F33033124CE3700F4B46
:1046D0001B780A2493FBF4F504FB153330330D4C9F
:1046E00023710B4B1B780A2493FBF4F33033094CF2
:1046F000A371074B1B780A2493FBF4F504FB1533D5
:104700003033044CE37130BD75000020760000208A
:10471000770000207800002010B586B014220649EA
:1047200001A8FFF702FF054901A8FFF7F2FE0446C2
:1047300002F0BEFA06B010BDD87300007800002069
:1047400030B585B044A103C9CDE9030144A2D2E943
:1047500000109268CDE901020091FF2000F0E0FF17
:10476000424800681421B0FBF1F3184600F03AFA11
:10477000002000F0D5FF3D4800681421B0FBF1F3A4
:10478000184600F02FFA002418E003A8005D38490D
:104790000A5C0521222000F015FE0120A040C2B2D3
:1047A0000621222000F00EFE304800681421B0FBE4
:1047B000F1F3184600F016FA601CC4B2082CE4DBD2
:1047C000002420E01DF8040041382A490A5C052134
:1047D000222000F0F7FD2546E01704EB5070C010D2
:1047E000A4EBC00101208840C2B20621222000F0C3
:1047F000E9FD1E4800681421B0FBF1F3184600F0F3
:10480000F1F9601CC4B20C2CDCDB32212A2000F050
:104810007FF819A002F03EFA22A002F03BFA29A08C
:1048200002F038FA36A002F035FA32212A2000F0E0
:104830006FF8002211460F2000F07EF80F220621AB
:104840004FF4FD6000F0FEF8002211460720FFF74C
:104850001DFF05B030BD0000020109010001020189
:104860005A48414E4757454E4B414E471400002091
:10487000190000202400002048656C6C6F21205432
:104880006869732069732061204469676974616C89
:1048900020436C6F636B206279205A574B2E2E2E6B
:1048A0000A0A0000456E746572202748454C50275F
:1048B00020746F2053656520434D44732E2E2E0ABD
:1048C0000A0000004E4F54453A20544845204649BE
:1048D00052535420434D442053484F554C4420419B
:1048E0004444204120424C414E4B204154205448E6
:1048F000452046524F4E542E2E2E0A0A000000002C
:10490000484156452046554E2E2E2E0A00000000E6
:1049100070B504460D46002605E02146054801F025
:10492000B9FF701CC6B2AE42F7DB0A21014801F0A4
:10493000B1FF70BD00C0004030B53C2A0ADB3C230B
:1049400092FBF3F30B44D9B23C2392FBF3F403FB49
:104950001423DAB23C290ADB3C2391FBF3F3034432
:10496000D8B23C2391FBF3F403FB1413D9B21828FB
:104970000DDB182390FBF3F32C4C247823442B4CB1
:104980002370182390FBF3F403FB1403D8B2284BD5
:104990001870284B1970284B1A70254B1B780A2465
:1049A00093FBF4F33033DBB2244C2370244C23709C
:1049B0001F4B1B780A2493FBF4F504FB15333033AB
:1049C000DBB21E4C63701E4C63701A4B1B780A24BA
:1049D00093FBF4F33033DBB2184CE370184CE37004
:1049E000144B1B780A2493FBF4F504FB1533303386
:1049F000DBB2124C2371124C23710F4B1B780A242B
:104A000093FBF4F33033DBB20C4CA3710C4CA37169
:104A1000094B1B780A2493FBF4F504FB1533303360
:104A2000DBB2064CE371064CE37130BD5B00002045
:104A300041000020420000204300002047000020E9
:104A40004F0000207FB554A678CE8DE8780064240E
:104A500090FBF4F504FB150434B1C41700EB947417
:104A6000A410A0EB840434B14FF4C87490FBF4F5A7
:104A700004FB150414B91D238DF802301DF8013014
:104A800093420DDA1DF8013092FBF3F30B44D9B2D7
:104A90004B1E1DF8033092FBF3F403FB1423DAB230
:104AA0000C290ADD0C2391FBF3F3034498B20C2389
:104AB00091FBF3F403FB1413D9B23B4B18803B4B2F
:104AC00019703B4B1A70384B1B884FF47A7493FB68
:104AD000F4F33033DBB2374C2370374C2370324B56
:104AE0001B88642493FBF4F30A2493FBF4F504FB82
:104AF00015333033DBB22F4C63702F4C63702A4B6D
:104B00001B880A2493FBF4F393FBF4F504FB1533A1
:104B10003033DBB2274CA370274CA370224B1B8889
:104B20000A2493FBF4F504FB15333033DBB2214C3C
:104B3000E370214CE3701D4B1B780A2493FBF4F3C4
:104B40003033DBB21B4C23711B4C6371174B1B784A
:104B50000A2493FBF4F504FB15333033DBB2154C18
:104B60006371154CA371124B1B780A2493FBF4F369
:104B70003033DBB20F4CA3710F4C23720C4B1B78FC
:104B80000A2493FBF4F504FB15333033DBB2094CF4
:104B9000E371094C63727FBD001F1C1F1E1F1E1F87
:104BA0001F1E1F1E1F000000580000205A0000207A
:104BB0005B000020620000206A00002010B586B073
:104BC0001422064901A8FFF7B0FC054901A8FFF728
:104BD000A0FC044602F06CF806B010BDC4730000DF
:104BE0006A000020002100E0491C8142FCD370478C
:104BF00010B51049104801F0ABFA1049086000F0F8
:104C000075FE00F0B3FE00F0F7FE01F0ADFC00F021
:104C100015FE01F073FD00F075FC032000F07AFC36
:104C2000E021152000F084FC03210F2000F080FC1F
:104C300010BD0000002D3101800600F1140000209D
:104C40002DE9F04105460E46002426E0285D303867
:104C5000002803D4285D3038092802DD285D2D287E
:104C600019D1285D2D2802D0285D303800E00A20B7
:104C7000C7B20C48C25D0521222000F0A3FB012031
:104C8000A040C2B20621222000F09CFB0022062197
:104C9000222000F097FB601CC4B2B442D6DBBDE812
:104CA000F08100001900002010B561480078072845
:104CB0007AD2DFE800F0B904090E38638E000821CB
:104CC0005C48FFF7BDFFB0E008215B48FFF7B8FF85
:104CD000ABE05A480078D0B10020584908705848D5
:104CE0000078401C122190FBF1F201FB12005449A4
:104CF000087054480078012801D1802001E0514813
:104D000000785049087008460078401008704E49F5
:104D10004B4A127888180821FFF792FF494800781B
:104D200000F0FEFC81E045480078D8B100204349FE
:104D30000870434800781130122190FBF1F201FB1A
:104D400012003F4908703F480078802801D10120B7
:104D500001E03C4800783B4908700846007840066E
:104D6000000E08703849364A127888180821FFF773
:104D700067FF3448007800F0D3FC56E033480078F1
:104D8000D8B10020314908702D480078401C12210C
:104D900090FBF1F201FB12002949087029480078C4
:104DA000012802D1802002E03EE026480078254913
:104DB000087008460078401008702349204A12788D
:104DC00088180821FFF73CFF1E48007800F0A8FC77
:104DD0002BE01E480078D8B100201C490870184804
:104DE00000781130122190FBF1F201FB12001449FE
:104DF000087014480078802801D1012001E0114892
:104E0000007810490870084600784006000E0870C7
:104E10000D490B4A127888180821FFF711FF09483D
:104E2000007800F07DFC00E000BF00BF10BD000076
:104E30001800002062000020470000200D00002024
:104E4000C0080020C1080020900900200C000020AC
:104E500010B503A001F02CFF03A001F01BFF10BD53
:104E60004552524F52210A00456E74657220274800
:104E7000454C502720746F2053656520434D447383
:104E80002E2E2E0A00000000D0F8003412F0010F80
:104E900014BF0B438B43C0F8003412F0020FD0F85C
:104EA000202414BF114322EA0101C0F820147047E6
:104EB0002DE9F00301264FF0000C0325C2F3411742
:104EC00006FA0CF40C4211D0D0F8C48F4FEA4C040F
:104ED00005FA04F928EA0908C0F8C48FD0F8C48F8D
:104EE00007FA04F448EA0404C0F8C44F0CF1010CBA
:104EF0000CF0FF0CBCF1080FE2D3D0F800C512F0A3
:104F0000010F14BF4CEA010C2CEA010CC0F800C5DB
:104F1000D0F804C512F0020F14BF4CEA010C2CEAC1
:104F2000010CC0F804C5D0F808C512F0040F14BF76
:104F30004CEA010C2CEA010CC0F808C5D0F818C5E1
:104F400012F0080F14BF4CEA010C2CEA010CC0F857
:104F500018C512F0100FD0F83C2514BF0A438A433D
:104F6000C0F83C25D0F80C2513F0010F14BF0A43FC
:104F70008A43C0F80C25D0F8102513F0020F14BF97
:104F80000A438A43C0F81025D0F8142513F0040F03
:104F900014BF0A438A43C0F81425D0F81C2513F027
:104FA000080F14BF0A438A43C0F81C25D0F84425D3
:104FB00013F4007F14BF0A438A43C0F84425D0F895
:104FC000402513F4407F14BF0A438A43C0F84025AC
:104FD000D0F82825002B0CBF114322EA0101C0F8AC
:104FE0002815BDE8F00370470E4AC0F30741D26EA2
:104FF00001238B401A420C4A1ABF02EBC1014968D7
:1050000052F83110020AD1F82C354FF00F0C0CFA7F
:1050100002FC00F00F0023EA0C0390401843C1F893
:105020002C05704700E00F408475000050F8210007
:10503000704730B50C4605460022FFF725FF214694
:105040002846BDE8304008230122FFF731BF30B5C4
:105050000C46054608230122FFF72AFF2146284671
:10506000BDE830400122FFF70FBF30B50C460546C2
:105070000222FFF709FF21462846BDE830400923F8
:105080000122FFF715BF30B50C4605460222FFF797
:10509000FBFE21462846BDE8304008230122FFF7E9
:1050A00007BF30B50C4605460222FFF7EDFE21464C
:1050B0002846BDE8304008230122FFF7F9BE30B58D
:1050C0000C4605460222FFF7DFFE21462846BDE8D2
:1050D000304008230122FFF7EBBE40F82120704743
:1050E00010B501210A20FFF713FC32212D20FFF714
:1050F0000FFC14A001F0CEFD1BA001F0CBFD28A0F9
:1051000001F0C8FD2FA001F0C5FD37A001F0C2FDE0
:105110003FA001F0BFFD4BA001F0BCFD57A001F086
:10512000B9FD66A001F0B6FD6FA001F0B3FD77A058
:1051300001F0B0FD7DA001F0ADFD32212D20FFF783
:10514000E7FB10BD2D2A2D205448495320495320F8
:1051500048454C5020494E464F4D4154494F4E20F2
:105160002D2A2D0A0A00000030312022494E4954D0
:1051700020434C4F434B223A205265736574207490
:10518000686520436C6F636B20746F2074686520C2
:10519000496E697469616C2053746174650A00001A
:1051A000303220224745542054494D45223A20416F
:1051B000637175697265207468652054696D650A4C
:1051C000000000003033202247455420444154451C
:1051D000223A2041637175697265207468652044C4
:1051E0006174650A000000003034202247455420D5
:1051F000414C41524D223A204163717569726520DC
:1052000074686520416C61726D2054696D650A0097
:10521000303520225345542054494D452048483AC2
:105220004D4D3A5353223A205365742074686520DB
:1052300054696D6520746F2048483A4D4D3A535378
:105240000A00000030362022534554204441544582
:1052500020595959592D4D4D2D4444223A2053651A
:105260007420746865204461746520746F205959F6
:1052700059592D4D4D2D44440A000000303720224D
:1052800053455420414C41524D2054494D452048EE
:10529000483A4D4D3A5353223A205365742074686E
:1052A0006520416C61726D2054696D6520746F20BA
:1052B00048483A4D4D3A53530A00000030382022F6
:1052C00041542B434C415353223A20416371756939
:1052D00072652074686520436C617373204E756D30
:1052E0006265720A000000003039202241542B49C7
:1052F00044223A20416371756972652074686520A3
:1053000053747564656E742049440A00313020225C
:105310004D55534943204F4E223A20536574204D3A
:1053200075736963204F4E0A00000000313120225E
:105330004D55534943204F4646223A205365742029
:105340004D75736963204F46460A000070B50446E8
:105350000E4600BF1A4800F063F80028FAD1002278
:105360002146174800F098F83146154800F062F8D9
:105370000721134800F05AF800BF114800F04AF81E
:105380000028FAD14FF47A70FFF72CFC0122214655
:105390000B4800F081F80721094800F047F800BFEA
:1053A000074800F037F80028FAD1054800F040F827
:1053B000C5B24FF47A70FFF715FC284670BD0000A7
:1053C0000000024070B504460E46154600BF104866
:1053D00000F026F80028FAD1002221460C4800F0FF
:1053E0005BF831460A4800F025F80321084800F030
:1053F0001DF800BF064800F013F80028FAD129462E
:10540000034800F017F80521014800F00FF870BDBF
:1054100000000240406810F0400018BF01207047B3
:10542000406810F0010018BF0120704741607047CC
:105430008068704781607047016A41F01001016225
:1054400070470000036A43F010030362002A14BF90
:105450000E4A0F4A02EB820301EB830302EB820246
:1054600092005B1EB3FBF2F2521EC260D0F8C02F56
:1054700012F0010F08BF7047064A1144521CB1FBDD
:10548000F2F1491E41F08001C1607047801A0600A8
:10549000A08601007F47370142EA41010160704761
:1054A0001649042804BF086840F4803018D0052845
:1054B00004BF086840F4003012D0062812D00F282C
:1054C00015D0102838BF7047103800F01F01012296
:1054D00002FA01F142090A4850F8220001607047BF
:1054E00008607047086840F48020086070474FF0FB
:1054F000E020016941F002010161704724ED00E004
:10550000D076000010B5FEF7F2FE002818BF01208B
:1055100010BD0000044951F82000044940F0FD701E
:1055200040F0806008607047147600000CED00E0E9
:10553000084A20F00303D25813688007C00E4FF0CA
:10554000FF0C0CFA00FC23EA0C0301FA00F01843EC
:10555000106070473476000070B500212220FFF7FC
:10556000F5FEC043C5B200205F49087001240AE07F
:10557000601E012101FA00F0284010B15A48047061
:1055800003E0601CC4B2082CF2DD00BF574800786D
:1055900010B101286FD13DE05348007828B30120B5
:1055A000524908705048007805280DD10120504913
:1055B00008705048007803282BD004204E4908700A
:1055C00000204C49087024E04748007806280DD197
:1055D00001204A49087047480078032819D0032061
:1055E0004549087000204349087012E03E480078A1
:1055F000072803D10120424908700AE03A480078A0
:10560000042802D100F096FC03E0374800783949BD
:10561000087000BF3448007818B90020334908707A
:1056200029E031480078062810D136480088401C0F
:1056300080B234490880B0F57A7F07DB002008800B
:1056400005202D49087000202A4908702648007856
:10565000052810D12C480088401C80B22A490880B7
:10566000B0F57A7F07DB0020088006202249087009
:105670000020204908702548007810B1012814D175
:105680000AE002212248FFF7D1FC20B901201F497E
:1056900008702049087009E002211D48FFF7C6FC88
:1056A00010B100201949087000E000BF00BF1A487F
:1056B000007810B1012814D10AE001211448FFF745
:1056C000B5FC20B90120144908701449087009E09C
:1056D00001210F48FFF7AAFC10B100200E49087005
:1056E00000E000BF00BF70BD8300002082000020EA
:1056F0008400002081000020180000208500002088
:10570000860000208C0000208E00002087000020F2
:1057100000D0034088000020890000208A0000207B
:1057200010B50446E043C2B201211820FFF74AFE3B
:1057300010BD000010B516480078012815D00228C9
:1057400019D003281DD008281ED100201049087048
:105750001049087010490870104908701049087005
:105760001049087000F0E0FB0FE001200E490870BE
:10577000FFF7D6FF09E002200B490870FFF7D0FFC2
:1057800003E000F029FB00E000BF00BF10BD0000F7
:10579000810000208A000020880000208600002070
:1057A00085000020840000201800002008440168C3
:1057B0006FF352011143016012F0020F14BFB021C8
:1057C0008C21016214BF4FF4306140F60C0141623C
:1057D0007047425822F0010242507047425842F04E
:1057E00001024250704708440168006911F0020F3D
:1057F00014BF4000401C70470844016811F0020FBC
:1058000014BF5108511E01617047002A826814BFFD
:10581000114322EA01018160704721F03F031844DF
:10582000036813F0020F18BF520803699A1A11F0A7
:10583000010F14BFC26182617047000010B51448A7
:1058400000F0FCFD134800F0F9FD00BF114800F026
:1058500009FE0028FAD020210F48FFF7F8FB0A23A1
:10586000022220210C48FFF723FB0C48FFF7BCFB6A
:1058700020210948FFF715FC0222D1010848FFF753
:1058800095FF012280210648FFF7BFFF10BD0000F1
:10589000004000F0090800F000100640061409005E
:1058A0000080024010B500200D4908700D490C48D9
:1058B000FEF7C0FD20200A490872002048720A49FC
:1058C0000748FEF726FE202005494874002088740A
:1058D00004490348FEF71DFE20200149887610BDCB
:1058E00090090020620000204700002010B51B48EE
:1058F00000F0A4FD00BF194800F0B4FD0028FAD064
:105900001648C01C00F09AFD00BF1448C01C00F0EF
:10591000A9FD0028F9D01148C01D00F08FFD00BF7F
:105920000E48C01D00F09EFD0028F9D001210C4852
:10593000FFF78DFB01210B48FFF789FB0221094886
:10594000FFF785FB03210848FFF773FB0A230122B9
:1059500003210548FFF7ACFA10BD0000050800F070
:10596000005002400040064000D0034010B51B48E4
:1059700000F064FD1A4800F061FD1A48FFF734FB9F
:105980001948FFF731FB04211848FFF77CFB082179
:105990001648FFF76AFB0122154801681548FFF712
:1059A00051FD1448FFF748FDFF220C212220FFF78C
:1059B00009FD00220D212220FFF704FD00220E2107
:1059C0002220FFF7FFFC002203211820FFF7FAFC3A
:1059D000FF2201211820FFF7F5FC10BD002000F088
:1059E000010800F002080100020C01000050004014
:1059F000140000200000024010B5184800F01EFD01
:105A0000174800F01BFD00BF154800F02BFD0028D3
:105A1000FAD00120FFF7E8FA40F20140FFF7E4FA7C
:105A200003214FF04020FFF74AFB60234FF4E1329F
:105A30000C4801680C4801F0E7F80CA001F02AF9C5
:105A400020220121084801F016F91520FFF728FD52
:105A50005021054801F014F910BD0000001800F0B5
:105A6000000800F01400002000C000400D0A446946
:105A7000676974616C20436C6F636B20496E697455
:105A800069616C697A696E672E2E2E0D0A0A000014
:105A900000B5044802780448017804480078FEF70D
:105AA000F5FD00BD46000020450000204400002018
:105AB00010B5BE490978C1F1070201219140C8B271
:105AC000FFF72EFEBA480088BA490880BA48007825
:105AD000BA490880BA480078BA490880BA480078BC
:105AE00068B10020B8490870B0490978481CC1174E
:105AF00000EB5171C910A0EBC101AC4A1170B34861
:105B0000007868B10020B1490870A8490978C81D1B
:105B1000C11700EB5171C910A0EBC101A34A11706C
:105B2000AB48007800286ED00020A94908709F4833
:105B30000078082868D2DFE800F0041C36415A6873
:105B40007480A04800880A2190FBF1F201FB12004A
:105B5000401C90FBF1F201FB12009A4909880A22CD
:105B600091FBF2F101EB810100EB410095490880C6
:105B700071E0944909880A2291FBF2F302FB1312A7
:105B8000904909880A2391FBF3F1481CC11700EBE7
:105B900091718910A0EB810101EB810102EB4101C0
:105BA000884A118057E085480088401C0D2190FBF1
:105BB000F1F201FB1200814908804CE07F4909881D
:105BC0000A2291FBF2F302FB13127C4909880A2393
:105BD00091FBF3F1481C00EBD0714910A0EB41019F
:105BE00001EB810102EB4101744A118033E07148FD
:105BF0000088401C42F2107190FBF1F201FB120090
:105C00006C49088027E027E024E06A4800880A30D1
:105C100042F2107190FBF1F201FB1200654908801D
:105C200019E064480088643042F2107190FBF1F290
:105C300001FB12005F49088000BF5E48008800F544
:105C40007A7042F2107190FBF1F201FB1200594997
:105C5000088000BF00BF00BF5E48007800286FD0FA
:105C600000205C49087051480078082869D2DFE8B4
:105C700000F0041C36415A697683524800880A2194
:105C800090FBF1F201FB1200093090FBF1F201FBF5
:105C900012004C4909880A2291FBF2F101EB8101C3
:105CA00000EB41004749088075E0464909880A220F
:105CB00091FBF2F302FB1312424909880A2391FB7C
:105CC000F3F1C81CC11700EB91718910A0EB8101A1
:105CD00001EB810102EB41013A4A11805BE0374858
:105CE00000880C300D2190FBF1F201FB12003349CA
:105CF000088050E0314909880A2291FBF2F302FB47
:105D000013122E4909880A2391FBF3F1481C00EB7A
:105D1000D0714910A0EB410101EB810102EB41017F
:105D2000264A118037E023480088401E42F2107155
:105D3000084490FBF1F201FB12001E4908802AE0A2
:105D40002AE027E01B4800880A3842F21071084414
:105D500090FBF1F201FB1200164908801BE0154888
:105D60000088643842F21071084490FBF1F201FBA4
:105D700012001049088000BF0E480088A0F57A7014
:105D800042F21071084490FBF1F201FB1200094944
:105D9000088000BF00BF00BF0A48027807480178AA
:105DA00004480088FEF74EFE10BD0000C308002026
:105DB000580000205C0000205A0000205E000020F7
:105DC0005B0000206000002085000020840000208F
:105DD000880000208A00002010B53F48007810B3EA
:105DE00000203D4908703D480088401C80B23B4976
:105DF00008801E2817DB002008803948007828B169
:105E0000012211463748FFF768F904E0002201211A
:105E10003448FFF762F93248007808B9012000E001
:105E200000202F49087030480078012802D1FFF780
:105E30003FFE0CE02C480078022808D100F086F8DC
:105E40002A48007818B100F06FF8FFF721FE2848C3
:105E5000007800283FD000202549087022480078AB
:105E6000012824D12348008823490880234800784A
:105E700023490870234800782349087008460078B1
:105E8000002802DD0846007802E01F480078401C28
:105E90001D4908701A480078002802DD184800786B
:105EA00002E017480078401C154908700FE00E48C2
:105EB000007802280BD1154800781549087015485C
:105EC000007815490870154800781549087006488B
:105ED00000781449087010BD0B000020100000204D
:105EE0000F0000200050024018000020BA080020D7
:105EF000860000205C000020580000205E0000208A
:105F00005A000020600000205B00002044000020B8
:105F100041000020450000204200002046000020F3
:105F200043000020810000200020014908707047D4
:105F3000BA080020012003490870002002490880A7
:105F400070470000BA080020B608002010B5754957
:105F50000978C1F1070201219140C8B2FFF7E0FBC7
:105F6000714800787149087071480078714908706B
:105F700071480078714908707148007868B1002054
:105F80006F49087067490978481CC11700EB5171C7
:105F9000C910A0EBC101634A11706A48007868B16A
:105FA0000020684908705F490978C81DC11700EBD7
:105FB0005171C910A0EBC1015A4A117062480078B2
:105FC000002850D000206049087056480078082802
:105FD00047D2DFE800F0040F461A2546303B574809
:105FE0000078401C3C2190FBF1F201FB1200534968
:105FF000087037E0514800780A303C2190FBF1F2FC
:1060000001FB12004D4908702CE04A480078401C02
:106010003C2190FBF1F201FB12004649087021E09F
:10602000444800780A303C2190FBF1F201FB120059
:106030004049087016E03D480078401C182190FB4C
:10604000F1F201FB1200394908700BE03748007883
:106050000A30182190FBF1F201FB1200334908705D
:1060600000BF00BF00BF39480078002850D0002092
:10607000364908702B480078082847D2DFE800F03E
:10608000040F461A2546303B2C4800783B303C2113
:1060900090FBF1F201FB12002849087037E0274815
:1060A000007832303C2190FBF1F201FB12002349D1
:1060B00008702CE01F4800783B303C2190FBF1F247
:1060C00001FB12001B49087021E01A4800783230A9
:1060D0003C2190FBF1F201FB12001649087016E01A
:1060E000124800781730182190FBF1F201FB1200E2
:1060F0000E4908700BE00D4800780E30182190FB17
:10610000F1F201FB12000949087000BF00BF00BF97
:106110000A4802780748017804480078FEF70CFC2A
:1061200010BD0000C20800204100002044000020F3
:1061300042000020450000204300002046000020CF
:106140008500002084000020880000208A000020B4
:106150002DE9F003AF4D02462868AF4B1840A0F17F
:106160008053B3F5A02359D002F03809DFF8AC8290
:10617000C2F38414B9F1100F25D0B9F1300F04BF68
:1061800047F230504FF400130DD04FF038009043D9
:1061900004BF4FF40040C30105D012F0380F1CBFFC
:1061A0000020034613D09E4F12F4605F4FF00006AC
:1061B00018BF00222CD057F8324044457DD307EB5E
:1061C000C2025268E1E0002340461524EBE7A4F147
:1061D0000900122822D29348D5F87CC04FF04C73A6
:1061E00050F824002CF01C0C072CA8BF4CF0100C0D
:1061F000C5F87CC02E6D4FF4002C16F4807FD2D1F0
:10620000BCF1010C0AD02E6D16F4807FF8D0CAE7DD
:1062100012F0380F18BFB9F1100F04D0BDE8F00329
:106220004FF000007047C2F30268DFF8FCC14FF086
:10623000000257F83290E14503D307EBC2025268DF
:1062400003E0521C062AF4D33246C5F8C020D5F824
:10625000B020DFF8D8C102EA0C0242F00042C5F8D3
:10626000B020DFF8CCC1A4F109024C1E5CF828C0B4
:10627000A444BCFBF1FCD5F8B0101943C5F8B0102C
:1062800008EBC80101EB41046A4902EB420201EB51
:10629000C40101EB82046468C5F86441D5F8644127
:1062A0006FF0FF0808EB0C2C44EA0C0CC5F864C135
:1062B00051F82210D5F8602100E061E002F40002FC
:1062C0001143C5F86011D5F86011D5F86021C1F30C
:1062D0008921C2F30904D5F86421C2F3042202F132
:1062E000010CD5F8642102F01F02521CB0FBF2F041
:1062F0004A09C2F100084443424301EB481104EB50
:106300005212484302EB9020B0FBFCF041080846D3
:10631000002257F832C0844503D307EBC200466819
:1063200002E0521C062AF4D3C5F8C060D5F860011B
:1063300010F4000F1DBFD5F8B00040F08040C5F844
:10634000B000D5F8600104BF40F40000C5F860015A
:106350004FF40040D5F8682112F0010F02D1401E21
:106360000028F7DC002808BF002148D0D5F8B0008D
:10637000184340F0010040F01040C5F8B0003EE086
:10638000521C062AFFF417AF3246C5F8C020D5F8D4
:10639000602122F40002C5F86021D5F8B020DFF8B2
:1063A00098C002EA0C0242F00042C5F8B020002971
:1063B00008BF4FF0000C0AD0B0FBF1FCBCF1000F9D
:1063C00018BFACF1010C0CF10101B0FBF1F1084672
:1063D000002257F83240844203D307EBC2004668DC
:1063E00002E0521C062AF4D3C5F8C060D5F8B0000C
:1063F00043EA8C22104340F00040C5F8B000D5F8C5
:10640000B00020F47000C5F8B000BDE8F003084605
:106410007047000000E00F400000FF700024F4000F
:10642000447900002877000040787D0100FC0FE0EF
:106430002077000094770000FF0300EFC0F30723EC
:106440000749C0B2194401F07043C1F3130143EA94
:10645000411141EA800040F0007001220260704763
:1064600000E60F40C0F307220849C0B2114401F012
:106470007042C1F3130142EA411141EA800040F049
:1064800000700068002818BF0120704700EA0F4024
:106490004FF0E020016941F00501016170474FF0C4
:1064A000E020016941F00201016170474FF0E021F5
:1064B000401E48617047000021480088401C80B29F
:1064C0001F490880B0F57A7F04DB00200880012096
:1064D0001C4908701C480088401C80B21A4908807A
:1064E000B0F5FA7F04DB002008800120174908700E
:1064F00017480088401C80B215490880FA2804DB40
:106500000020088001201349087013480088401CAF
:1065100080B2114908800A2804DB0020088001208D
:106520000E4908700E480088401C80B20C49088053
:10653000012804DB0020088001200A490870704708
:10654000080000200E000020060000200D000020A2
:10655000040000200C000020020000200B0000209E
:10656000000000200A00002010B5074800684FF422
:106570007A71B0FBF1F42046FFF798FFFFF788FF30
:10658000FFF78DFF10BD00001400002004480068D4
:1065900040F47000024908600248034908607047EF
:1065A00088ED00E00024F400C408002010B52DEDB3
:1065B0000C8B01213C4800F0F8F84FF480713B4807
:1065C000FFF707F93A4800883A490988884203D119
:1065D00000203749088063E03748008800F061FDFB
:1065E00041EC190B3548324A128800EB820090EDDD
:1065F000000A10EE101A084600F064FE41EC1B0B76
:106600002F48006800F04DFD41EC1D0B9FED2D0B58
:1066100053EC102B00F0C0FB41EC1C0B53EC1B2B7C
:1066200000F052FD41EC1A0B53EC192B00F04CFD1D
:1066300041EC180B00F008FD04462246FF211A48E1
:1066400000F0B9F821481A49098830F8110010B350
:106650001E481749098830F8110019490968B1FB2B
:10666000F0F422464FF480711048FFF7C5F84FF45C
:1066700080710E48FFF7B7F84408224640F2071130
:106680000A48FFF7CAF81248007820B14FF4807129
:106690000648FFF7A3F806480088401C0449088014
:1066A000BDEC0C8B10BD00000010034000800240C8
:1066B000B6080020B4080020B808002048030020D5
:1066C000140000200000000000408F4090000020D7
:1066D000BA08002010B586B01422064901A8FDF7BB
:1066E00024FF054901A8FDF714FF044600F0E0FA75
:1066F00006B010BDB07300004F00002010B50C486C
:10670000FFF79CFE22210B4800F018F80A48FF21F1
:106710000268084800F04FF8FF21064800F03EF8F4
:106720000121044800F043F82520FEF7B9FE10BD12
:10673000010400F0001003401400002010B4C268EF
:1067400022F0010222F48072C2600A0E0260114A35
:106750001268114B02EA030CACF18054CBB2C1F3C6
:106760000722B4F5202407D043F40071416042F4BD
:106770000071816010BC70474FF4704C0CEA11142A
:10678000234343F4007343600CEA1121114341F4A5
:106790000071EEE700E00F400000FF70C26840F2B9
:1067A000011319401143C16070474162704782690B
:1067B00011438161704711F0FF0F18BF826211F41D
:1067C0007F4F18BFC262704738B50020009001218A
:1067D000274800F059FA04462146254800F04EFAB1
:1067E0003FE0234800F04EF8224908700846007840
:1067F0000D282CD008460078612807DB0846007871
:106800007A2803DC08460078203808701948007898
:1068100020280CD0002000901648017816480278F5
:106820000078401C144B18701448815419E09DF8EE
:106830000000B0B9012000900E4801780E4802789F
:106840000078401C0C4B18700C48815409E0012062
:106850000B49087000200949074A127888540649F4
:106860000870034800F024F80028BAD138BD0000B1
:1068700000C000403E00002040000020C80800206A
:106880003F000020816911F0100F0CBF00684FF02D
:10689000FF307047826912F0200FFBD10160704712
:1068A000826912F0200F06BF0160012000207047AE
:1068B0008069012121EA10107047000010B5A1A1E4
:1068C000A348FDF765FE18B9A2A000F0F1F937E181
:1068D000A3A19F48FDF75CFE18B9A3A000F0E8F95A
:1068E0002EE1A5A19A48FDF753FE10B9FEF7F8FB7B
:1068F00026E1A3A19648FDF74BFE10B9FDF720FF56
:106900001EE1A2A19248FDF743FE10B9FFF7E2FE97
:1069100016E1A1A18E48FDF73BFE10B9FEF74EF936
:106920000EE1A0A18A48FDF733FE10B9FDF7F4FE91
:1069300006E19FA18648FDF72BFE10B9FFF7FAFA92
:10694000FEE09EA18248FDF723FE10B9FFF7ECFAA6
:10695000F6E009229CA17E48FDF790FDD0BB7C4863
:10696000C07A30387A49897A303901EB810100EBFD
:106970004100984908707648807B30387449497BDB
:10698000303901EB810100EB4100934908707048F8
:10699000407C30386E49097C303901EB810100EBD5
:1069A00041008E4908706A48007B3A2803D0684845
:1069B000C07B3A280BD187480078182807DA864828
:1069C00000783C2803DA854800783C2803DBFEF792
:1069D0003FFAB5E00AE0814802787F4801787D48B7
:1069E0000078FDF7A9FFFFF775FEA9E00F227CA153
:1069F0005748FDF743FDD0BB5548407C30385449DB
:106A0000097C303901EB810100EB410071490870CC
:106A10004F48007D30384E49C97C303901EB810147
:106A200000EB41006C4908704948C07D3038484946
:106A3000897D303901EB810100EB41006749087025
:106A40004348807C3A2803D04148407D3A280BD106
:106A500060480078182807DA5F4800783C2803DA95
:106A60005E4800783C2803DBFEF7F2F968E00AE0B4
:106A70005A4802785848017856480078FDF706FED3
:106A8000FDF74AFE5CE0092259A13148FDF7F6FC0A
:106A9000F0BB2F48807A30384FF47A7110FB01F147
:106AA0002B48C07A303800EBC00202EB001001EB3B
:106AB00080012748007B303800EB800001EB40016B
:106AC0002348407B303808444C4908802048007CEB
:106AD00030381F49C97B303901EB810100EB41009F
:106AE000474908801A48C07C30381949897C3039B8
:106AF00001EB810100EB4100424908801448807B92
:106B00002D2803D01248407C2D2809D13C4800E0B4
:106B100014E000880C2803DC3A4800881F2802DDB6
:106B2000FEF796F90CE0374802783548017833488B
:106B30000088FDF787FFFEF741F801E0FEF788F9CE
:106B400010BD00000A41542B434C41535300000038
:106B5000C8080020434C41535320323234310000E6
:106B60000A41542B49440000494420353232303226
:106B700031393130313231000A48454C5000000083
:106B80000A494E495420434C4F434B000A47455451
:106B90002054494D450000000A47455420444154C3
:106BA000450000000A47455420414C41524D000029
:106BB0000A4D55534943204F4E0000000A4D55538E
:106BC0004943204F464600000A5345542054494D3E
:106BD0004500000044000020450000204600002041
:106BE0000A53455420414C41524D2054494D4500D3
:106BF0000A53455420444154450000005C000020E5
:106C00005E00002060000020D0F818C01CF0080FC3
:106C1000FAD1D0F82CC02CF0100CC0F82CC0D0F851
:106C200030C02CF0010C2CF4407CC0F830C0D0F8FF
:106C300030C0B1EB021F34BF4CF0200C2CF0200C04
:106C4000C0F830C038BF5208C900B1FBF2F1491C8E
:106C500049088A09426201F03F018162C362002152
:106C60008161C16A41F01001C162016B40F20132E1
:106C7000114301637047114341637047416470479A
:106C8000826B114381637047002914BF006CC06B95
:106C90007047000010B5044604E014F8011B0348D7
:106CA000FFF7F8FD20780028F7D110BD00C00040A4
:106CB00010B5044604E014F8011B0348FFF7F0FD8B
:106CC00020780028F7D110BD00C00040FDF790FFEC
:106CD000FDF736FD45E0FEF72DFD2248007820B196
:106CE000002020490870FFF7E9FD1F48007830B107
:106CF00000201D490870FDF7D7FFFEF72DFC1B484B
:106D0000007803282DD01A48007850B30020184985
:106D10000870184800781849097888420DD117483A
:106D2000007817490978884207D116480078164933
:106D30000978884201D1FFF7FDF812480078401C1D
:106D4000C2B20E4801780B480078FDF7F5FD0F48F8
:106D500002780F4801780F480088FDF773FEFEF7B0
:106D6000A1FDB8E73F0000200A00002081000020BC
:106D70000E0000204100002075000020420000208D
:106D80007600002043000020770000205B000020F8
:106D90005A000020580000202DE9C04130B4DFF82F
:106DA000A0C23CEA111418BF3CEA131400F0EC80B6
:106DB00081EA03051CEA111444EAD57418BF1CEAE1
:106DC000131500F0C780A4EB05044FF0004545EA19
:106DD000C12145EAC32341EA505143EA525304F129
:106DE0007F74994204F500344FEAC0204FEAC22272
:106DF00008BF904200F09C804FEA13650FF24016E6
:106E0000765D4FEA134506FB05F7C7F1807706FB71
:106E100007F74FEAD737A7FB03687642C8F58038F3
:106E2000A7FB06CE38BFA8F1010807FB08E64FF024
:106E3000000EA6FB028CE6FB03CEDCF1000CCEF1CB
:106E4000004E38BFAEF1010EA6FB0C584FF0000704
:106E50004FF00005E6FB0E87A1FB08C6A0FB07CE9E
:106E600016EB0E0645F10005E1FB076515F1E04E56
:106E70007EBFA4F580345FEA46066D4116F18007B7
:106E800045F100054FEA17274FEA066647EA05670E
:106E9000A6F1DE46B6F1805F4FEA15251FD93846C8
:106EA00024F0010C05EBC471BCF1FE6F01EB0C1179
:106EB00002D8F0BCBDE8008124425CBF01F5801E11
:106EC0009EEAC47F02D4F0BCBDE80081244238D4DD
:106ED000F0BCA1F1C041BDE8004100F0EDB94FEABE
:106EE000D22242EA43524FEAD323A7FB02864FEA5B
:106EF000D02040EA415007FB03661EEA0E0F4FEA1E
:106F0000D12105FB026658BFA6EB0056B6EB005632
:106F10004FEA520E4EEAC37E18EB0E0E56EB530E9E
:106F2000BDD518EB02085E417F1C55F10005B6E7A0
:106F30004FF480154FF000074FF000064FF00008A7
:106F4000ADE7F0BC4FF0000001F1C04101F000419D
:106F5000BDE8008111EA0C1F0CEA131500D00CE00B
:106F600013EA0C1F00F025804FF00000F0BC81EA0E
:106F7000030101F00041BDE80081F0BCBDE8004123
:106F800081EA030100F098B9F0BCBDE8004170B59A
:106F900000F044F9097EFC3E00F007B881EA0301E5
:106FA0004FF0000001F00041704781EA030100F05A
:106FB00083B9F0BCBDE800414FF0000021497047A3
:106FC000FFFDFBF9F7F5F4F2F0EEEDEBE9E8E6E4AE
:106FD000E3E1E0DEDDDBDAD8D7D5D4D3D1D0CFCD35
:106FE000CCCBCAC8C7C6C5C4C2C1C0BFBEBDBCBB6E
:106FF000BAB9B8B7B6B5B4B3B2B1B0AFAEADACAB69
:10700000AAA9A8A8A7A6A5A4A3A3A2A1A09F9F9E42
:107010009D9C9C9B9A9999989797969595949393F4
:10702000929191908F8F8E8E8D8C8C8B8B8A89898B
:10703000888887878685858484838382828181800E
:107040000000FF070000F87F4FEA1153A3F58063AB
:10705000D3F11E03A8BFD3F1200C08DB4FF0004290
:1070600042EAC12252EA505232FA03F07047094212
:107070000BD4102BC4BF0020704703F5787CBCF103
:10708000FF3F05D04FF0FF3070474FF000007047D2
:1070900070B500F0C3F800BF49922480002070470B
:1070A000F0E7B0FA80F310FA03F10AD0C3F11D0340
:1070B00003F580634FEA41504FEA035202EBD121BE
:1070C00070474FF000007047DFF848C170B51CEA08
:1070D000111E1EBF1CEA13159EEA0C0F95EA0C0F39
:1070E00000F06F8081EA030423EA4C134EEAD47E59
:1070F00021EA4C1141F4801143F48013AE44A1FB0A
:10710000024CA0FB0365AEF17F7E361955EB0C05F2
:10711000A1FB034C4CF10003A0FB021C16EB0C0678
:10712000654153F10003094218BF46F0010613F40C
:10713000007F0BD14FEA03314FEA0530340341EAB7
:10714000155140EA16506FF003020AE04FEAC321DE
:107150004FEAC520F40241EA555140EA56506FF01B
:10716000020202EB2E4201EB025585EACE710AD0F3
:107170005FEA440C18BF24F0004450F1000041F1D4
:10718000000120EAD47040F2FE7C624500D270BD5E
:10719000A84214BF4FF080444FF04044002E08BF77
:1071A0000024BEF1806FA8BFA1F1C041BDE87040CE
:1071B00080F282804FF0000001F1C04101F00041F7
:1071C00070479EEA0C0F0CEA131518BF95EA0C0FD6
:1071D00006D04FF0000081EA030E0EF0004170BDB2
:1071E00000F01CF88900013E00F007B800F009B873
:1071F0004FEA430C5FEA5C5C08D081EA030100F0CF
:107200005BB84FEA410C5FEA5C5CF6D14FF00000DE
:10721000014970470000FF070000F87F0EF1020EE1
:107220002EF0030E5EF8046B364205D4012A43EBC0
:10723000030515F5001F12D8012841EB010C1CF5C0
:10724000001F0CD80ED14FEAD17C15F5001F0CEBB6
:107250004C0C0CF1020C08BF4CEBD37C04E04FF05B
:10726000080C01E04FEAD37C0CEB4C0526FA05F63E
:1072700006F00706B6F1040C06D20EEB860CBDE84C
:1072800070404CF0010C6047DFE80CF0090B020283
:107290004FF000414FF00000A1F5002170BD1946EC
:1072A0001046012851EB010418BFD4F5001484BF27
:1072B000002001F0004170BD0808A0F500114FEA60
:1072C0003101704743004FEAD30C4FEA3C0C434076
:1072D0001FBF40070CF1605113F0FE4F70471CF0C8
:1072E000006F03D100200CF0004170470CF0004308
:1072F00043EA507010B540EACC0000F00EF800BF31
:10730000000000924FEA0001FFF7D6BF4FF00041A6
:107310004FF00000A1F5002170470EF1020E2EF093
:10732000030E5EF8044B244204D44FEA4102B2F14A
:107330007F4F11D84FEA4003B3F17F4F0CD80ED1E5
:107340004FEAD07CB2F17F4F0CEB4C0C0CF1020CED
:1073500008BF4CEBD17C04E04FF0080C01E04FEA91
:10736000D17C0CEB4C0324FA03F404F00704B4F1D1
:10737000040C06D20EEB840CBDE810404CF0010C5E
:107380006047DFE80CF0070802024FF00040A0F56C
:10739000800010BD0846420018BFD2F1807288BF3D
:1073A00000F0004010BD4FF04070E1EE100A704751
:1073B00054494D452000000000000000000000007E
:1073C000000000004441544520000000000000007F
:1073D0000000000000000000414C41524D20000020
:1073E000000000000000000000000000004000401D
:1073F0001000000000800540100000000050004018
:1074000011000000009005401100000000600040E5
:107410001200000000A005401200000000700040B3
:107420001300000000B005401300000000400240BF
:107430001400000000C0054014000000005002408D
:107440002E00000000D005402E0000000060024029
:107450002F00000000E005402F00000000700240F7
:107460003000000000F005403000000000D0034074
:1074700046000000000006404600000000100640E4
:107480004700000000200640480000000030064091
:107490007F000000004006408000000000500640D1
:1074A00084000000006006408C00000000400040A6
:1074B0001000000000800540100000000050004057
:1074C0001100000000900540110000000060004025
:1074D0001200000000A005401200000000700040F3
:1074E0001300000000B005401300000000400240FF
:1074F0001400000000C005401400000000500240CD
:107500002E00000000D005402E0000000060024068
:107510002F00000000E005402F0000000070024036
:107520003000000000F005403000000000D00340B3
:107530004300000000000640430000000010064029
:1075400044000000002006404500000000300640D6
:10755000580000000040064059000000005006405E
:107560005C000000006006406400000000700640FF
:107570006C000000008006406D0000000090064096
:107580007F000000004000400080054000500040A7
:10759000009005400060004000A0054000700040E1
:1075A00000B005400040024000C0054000500240CD
:1075B00000D005400060024000E00540007002403D
:1075C00000F0054000D003400000064000100640D7
:1075D0000010064000200640002006400030064013
:1075E0000030064000400640004006400050064083
:1075F00000500640006006400060064000700640F3
:107600000070064000800640008006400090064062
:107610000090064000070000000600000005000082
:107620000004000000030000000200000001000050
:10763000000000000000000018ED00E01CED00E07C
:1076400020ED00E000E400E004E400E008E400E0F5
:107650000CE400E010E400E014E400E018E400E0D2
:107660001CE400E020E400E024E400E028E400E082
:107670002CE400E030E400E034E400E038E400E032
:107680003CE400E040E400E044E400E048E400E0E2
:107690004CE400E050E400E054E400E058E400E092
:1076A0005CE400E060E400E064E400E068E400E042
:1076B0006CE400E070E400E074E400E078E400E0F2
:1076C0007CE400E080E400E084E400E088E400E0A2
:1076D00000E100E004E100E008E100E00CE100E08E
:1076E00010E100E080E100E084E100E088E100E0FA
:1076F0008CE100E090E100E000E200E004E200E064
:1077000008E200E00CE200E010E200E080E200E0CD
:1077100084E200E088E200E08CE200E090E200E039
:1077200000688909001C4E0E40420F0000201C001A
:1077300080841E0000802500999E3600004038009D
:1077400000093D0000803E0000004B00404B4C0013
:1077500000204E00808D5B0000C05D000080700046
:1077600000127A0000007D0080969800001BB70090
:107770000080BB00C0E8CE00647ADA000024F40088
:107780000000FA0080A81201002D310100366E01C0
:1077900040787D0140000000000000000001000072
:1077A0003E0008000000000000010000A0000000F2
:1077B000020000000001000034540100000000003D
:1077C000000100002B700600000000000001000016
:1077D0002800000000000000000100002700010058
:1077E0000000000000010000200000000000000078
:1077F0000001000050000000020000000001000035
:107800001AAC0000000000000001000017940900FD
:1078100000000000000100001698050000000000B4
:107820000001000014000000000000000001000042
:10783000138008000000000000010000A00000000C
:10784000080000000001000010000000000000001F
:1078500000010000280000000200000000010000FC
:107860004000000004000000000100006000000073
:1078700000000000000100005D000C00000000009E
:1078800000010000500000000000000000010000A6
:107890004E000200000000000001000041AC0100A9
:1078A00000000000000100003C000000000000009B
:1078B000000100003A800900000000000001000003
:1078C000300000000000000000010000280000005F
:1078D000000000000001000027000100000000007F
:1078E000000100002360060000000000000100000D
:1078F0002160080000000000000100001E000000E0
:1079000000000000000100001DC004000000000095
:107910000001000050000000020000000001000013
:10792000180000000000000000010000140000002A
:1079300000000000000100006000000004000000E2
:10794000000100000024F40030003000005A620200
:107950009100910000879303D200D20000B4C404C8
:107960001301130100E1F50554015401000E27072E
:10797000950195019479000000000020C8080000DE
:107980003C4200004C7B0000C80800204803000077
:107990009842000001183027023F065B4F666D7D5C
:1079A000077F6F40777C395E79713D760F0E7538B1
:1079B00037545C73673149783E1C7E646E59520CB3
:1079C0001E31322D3030031E31323A303003116512
:1079D000E80706032809323032343036303308479E
:1079E0002D30362D30335B303729F11EDC03160481
:1079F000703A279302BA024B02480FE4023F039306
:107A0000029302EE010B02B8010669240D1026054F
:107A100070030C1C70033F04694AA9200946544DA9
:107A2000160493021A29081C16049708290C1ADC5C
:107A30005629662908293029085A1028691C4B261E
:107A4000052C091A40292429A2E9142B7003922934
:107A50003049081C20067508290C3A9796290849D0
:107A60007049082B750536A95EC97A0B122605BA2E
:107A70001C1604DCBC0D162605E0066E2908180845
:107A8000E00670032006DC722BE006081C7505DC9E
:107A90001C296E1C26051604290E09226E1A3F2089
:107AA00049AE293A49062B7D0606180C2006E00649
:107AB000B8010B02B8014B04AD0B02EE010E2129F7
:107AC000063A930C23B8011A6E0C49AE29625A107B
:107AD000621C10034B18890E298C23700329C609D8
:107AE000100C1C70033F0421490E092A2C414B80C5
:107AF0003E04111A3F0829040919103914A9205904
:107B00000C091A28092E18093258098AA809E7040D
:107B100009C1F41119C409120409C2DC093F044A5D
:107B20004008110A183F24E91C092A2C09121C09D3
:107B3000366C290C09123C092618B9240957582318
:0C7B40005B01731802190C111324F400EF
:0400000500004201B4
:00000001FF
